{
  "contractName": "Admin",
  "abi": [
    {
      "inputs": [],
      "stateMutability": "nonpayable",
      "type": "constructor"
    },
    {
      "anonymous": false,
      "inputs": [
        {
          "indexed": true,
          "internalType": "address",
          "name": "EthAddress",
          "type": "address"
        },
        {
          "indexed": false,
          "internalType": "string",
          "name": "Name",
          "type": "string"
        }
      ],
      "name": "UserRegister",
      "type": "event"
    },
    {
      "anonymous": false,
      "inputs": [
        {
          "indexed": true,
          "internalType": "address",
          "name": "EthAddress",
          "type": "address"
        },
        {
          "indexed": false,
          "internalType": "string",
          "name": "Name",
          "type": "string"
        },
        {
          "indexed": false,
          "internalType": "uint256",
          "name": "Role",
          "type": "uint256"
        }
      ],
      "name": "UserRoleRessign",
      "type": "event"
    },
    {
      "anonymous": false,
      "inputs": [
        {
          "indexed": true,
          "internalType": "address",
          "name": "EthAddress",
          "type": "address"
        },
        {
          "indexed": false,
          "internalType": "string",
          "name": "Name",
          "type": "string"
        },
        {
          "indexed": false,
          "internalType": "uint256",
          "name": "Role",
          "type": "uint256"
        }
      ],
      "name": "UserRoleRevoked",
      "type": "event"
    },
    {
      "inputs": [
        {
          "internalType": "address",
          "name": "",
          "type": "address"
        }
      ],
      "name": "UsersDetails",
      "outputs": [
        {
          "internalType": "string",
          "name": "name",
          "type": "string"
        },
        {
          "internalType": "string",
          "name": "location",
          "type": "string"
        },
        {
          "internalType": "address",
          "name": "ethAddress",
          "type": "address"
        },
        {
          "internalType": "enum Admin.roles",
          "name": "role",
          "type": "uint8"
        }
      ],
      "stateMutability": "view",
      "type": "function",
      "constant": true
    },
    {
      "inputs": [],
      "name": "owner",
      "outputs": [
        {
          "internalType": "address",
          "name": "",
          "type": "address"
        }
      ],
      "stateMutability": "view",
      "type": "function",
      "constant": true
    },
    {
      "inputs": [
        {
          "internalType": "address",
          "name": "EthAddress",
          "type": "address"
        },
        {
          "internalType": "string",
          "name": "Name",
          "type": "string"
        },
        {
          "internalType": "string",
          "name": "Location",
          "type": "string"
        },
        {
          "internalType": "uint256",
          "name": "Role",
          "type": "uint256"
        }
      ],
      "name": "registerUser",
      "outputs": [],
      "stateMutability": "nonpayable",
      "type": "function"
    },
    {
      "inputs": [
        {
          "internalType": "address",
          "name": "userAddress",
          "type": "address"
        }
      ],
      "name": "revokeRole",
      "outputs": [],
      "stateMutability": "nonpayable",
      "type": "function"
    },
    {
      "inputs": [
        {
          "internalType": "address",
          "name": "userAddress",
          "type": "address"
        },
        {
          "internalType": "uint256",
          "name": "Role",
          "type": "uint256"
        }
      ],
      "name": "reassignRole",
      "outputs": [],
      "stateMutability": "nonpayable",
      "type": "function"
    },
    {
      "inputs": [
        {
          "internalType": "address",
          "name": "userAddress",
          "type": "address"
        }
      ],
      "name": "getUserInfo",
      "outputs": [
        {
          "internalType": "string",
          "name": "",
          "type": "string"
        },
        {
          "internalType": "string",
          "name": "",
          "type": "string"
        },
        {
          "internalType": "address",
          "name": "",
          "type": "address"
        },
        {
          "internalType": "uint256",
          "name": "",
          "type": "uint256"
        }
      ],
      "stateMutability": "view",
      "type": "function",
      "constant": true
    },
    {
      "inputs": [],
      "name": "getUsersCount",
      "outputs": [
        {
          "internalType": "uint256",
          "name": "count",
          "type": "uint256"
        }
      ],
      "stateMutability": "view",
      "type": "function",
      "constant": true
    },
    {
      "inputs": [
        {
          "internalType": "uint256",
          "name": "index",
          "type": "uint256"
        }
      ],
      "name": "getUserByIndex",
      "outputs": [
        {
          "internalType": "string",
          "name": "",
          "type": "string"
        },
        {
          "internalType": "string",
          "name": "",
          "type": "string"
        },
        {
          "internalType": "address",
          "name": "",
          "type": "address"
        },
        {
          "internalType": "uint256",
          "name": "",
          "type": "uint256"
        }
      ],
      "stateMutability": "view",
      "type": "function",
      "constant": true
    },
    {
      "inputs": [
        {
          "internalType": "address",
          "name": "_address",
          "type": "address"
        }
      ],
      "name": "getRole",
      "outputs": [
        {
          "internalType": "uint256",
          "name": "",
          "type": "uint256"
        }
      ],
      "stateMutability": "view",
      "type": "function",
      "constant": true
    }
  ],
  "bytecode": "0x608060405234801561001057600080fd5b50336000806101000a81548173ffffffffffffffffffffffffffffffffffffffff021916908373ffffffffffffffffffffffffffffffffffffffff160217905550611ad5806100606000396000f3fe608060405234801561001057600080fd5b50600436106100935760003560e01c80638da5cb5b116100665780638da5cb5b1461014a578063a4a1e26314610168578063a93c7abb14610186578063b57d63f5146101a2578063ff5d32fe146101be57610093565b80631ecd65631461009857806344276733146100cb5780636386c1c7146100fb57806380e52e3f1461012e575b600080fd5b6100b260048036038101906100ad9190611041565b6101f1565b6040516100c29493929190611184565b60405180910390f35b6100e560048036038101906100e09190611041565b61035e565b6040516100f291906111f0565b60405180910390f35b61011560048036038101906101109190611041565b6103c9565b604051610125949392919061120b565b60405180910390f35b61014860048036038101906101439190611041565b61063f565b005b6101526108f4565b60405161015f919061125e565b60405180910390f35b610170610918565b60405161017d91906111f0565b60405180910390f35b6101a0600480360381019061019b91906112a5565b610925565b005b6101bc60048036038101906101b7919061141a565b610bdb565b005b6101d860048036038101906101d391906114b9565b610f73565b6040516101e8949392919061120b565b60405180910390f35b600160205280600052604060002060009150905080600001805461021490611515565b80601f016020809104026020016040519081016040528092919081815260200182805461024090611515565b801561028d5780601f106102625761010080835404028352916020019161028d565b820191906000526020600020905b81548152906001019060200180831161027057829003601f168201915b5050505050908060010180546102a290611515565b80601f01602080910402602001604051908101604052809291908181526020018280546102ce90611515565b801561031b5780601f106102f05761010080835404028352916020019161031b565b820191906000526020600020905b8154815290600101906020018083116102fe57829003601f168201915b5050505050908060020160009054906101000a900473ffffffffffffffffffffffffffffffffffffffff16908060020160149054906101000a900460ff16905084565b6000600160008373ffffffffffffffffffffffffffffffffffffffff1673ffffffffffffffffffffffffffffffffffffffff16815260200190815260200160002060020160149054906101000a900460ff1660068111156103c2576103c161110d565b5b9050919050565b606080600080600160008673ffffffffffffffffffffffffffffffffffffffff1673ffffffffffffffffffffffffffffffffffffffff168152602001908152602001600020600001600160008773ffffffffffffffffffffffffffffffffffffffff1673ffffffffffffffffffffffffffffffffffffffff168152602001908152602001600020600101600160008873ffffffffffffffffffffffffffffffffffffffff1673ffffffffffffffffffffffffffffffffffffffff16815260200190815260200160002060020160009054906101000a900473ffffffffffffffffffffffffffffffffffffffff16600160008973ffffffffffffffffffffffffffffffffffffffff1673ffffffffffffffffffffffffffffffffffffffff16815260200190815260200160002060020160149054906101000a900460ff1660068111156105185761051761110d565b5b83805461052490611515565b80601f016020809104026020016040519081016040528092919081815260200182805461055090611515565b801561059d5780601f106105725761010080835404028352916020019161059d565b820191906000526020600020905b81548152906001019060200180831161058057829003601f168201915b505050505093508280546105b090611515565b80601f01602080910402602001604051908101604052809291908181526020018280546105dc90611515565b80156106295780601f106105fe57610100808354040283529160200191610629565b820191906000526020600020905b81548152906001019060200180831161060c57829003601f168201915b5050505050925093509350935093509193509193565b60008054906101000a900473ffffffffffffffffffffffffffffffffffffffff1673ffffffffffffffffffffffffffffffffffffffff163373ffffffffffffffffffffffffffffffffffffffff16146106cd576040517f08c379a00000000000000000000000000000000000000000000000000000000081526004016106c4906115b8565b60405180910390fd5b600060068111156106e1576106e061110d565b5b600160008373ffffffffffffffffffffffffffffffffffffffff1673ffffffffffffffffffffffffffffffffffffffff16815260200190815260200160002060020160149054906101000a900460ff1660068111156107435761074261110d565b5b03610783576040517f08c379a000000000000000000000000000000000000000000000000000000000815260040161077a90611624565b60405180910390fd5b8073ffffffffffffffffffffffffffffffffffffffff167f18a4c0aa2d0b9e55cfd3c133652630cc693f845135ba74f56f45c8d38910ce5c600160008473ffffffffffffffffffffffffffffffffffffffff1673ffffffffffffffffffffffffffffffffffffffff168152602001908152602001600020600001600160008573ffffffffffffffffffffffffffffffffffffffff1673ffffffffffffffffffffffffffffffffffffffff16815260200190815260200160002060020160149054906101000a900460ff16600681111561085f5761085e61110d565b5b60405161086d9291906116dd565b60405180910390a26006808111156108885761088761110d565b5b600160008373ffffffffffffffffffffffffffffffffffffffff1673ffffffffffffffffffffffffffffffffffffffff16815260200190815260200160002060020160146101000a81548160ff021916908360068111156108ec576108eb61110d565b5b021790555050565b60008054906101000a900473ffffffffffffffffffffffffffffffffffffffff1681565b6000600280549050905090565b60008054906101000a900473ffffffffffffffffffffffffffffffffffffffff1673ffffffffffffffffffffffffffffffffffffffff163373ffffffffffffffffffffffffffffffffffffffff16146109b3576040517f08c379a00000000000000000000000000000000000000000000000000000000081526004016109aa906115b8565b60405180910390fd5b600060068111156109c7576109c661110d565b5b600160008473ffffffffffffffffffffffffffffffffffffffff1673ffffffffffffffffffffffffffffffffffffffff16815260200190815260200160002060020160149054906101000a900460ff166006811115610a2957610a2861110d565b5b03610a69576040517f08c379a0000000000000000000000000000000000000000000000000000000008152600401610a6090611759565b60405180910390fd5b806006811115610a7c57610a7b61110d565b5b600160008473ffffffffffffffffffffffffffffffffffffffff1673ffffffffffffffffffffffffffffffffffffffff16815260200190815260200160002060020160146101000a81548160ff02191690836006811115610ae057610adf61110d565b5b02179055508173ffffffffffffffffffffffffffffffffffffffff167f35ef25ed794630e2607a853ec75377c24e87b8b51c13fd3e08156fcfda7eb15a600160008573ffffffffffffffffffffffffffffffffffffffff1673ffffffffffffffffffffffffffffffffffffffff168152602001908152602001600020600001600160008673ffffffffffffffffffffffffffffffffffffffff1673ffffffffffffffffffffffffffffffffffffffff16815260200190815260200160002060020160149054906101000a900460ff166006811115610bc157610bc061110d565b5b604051610bcf9291906116dd565b60405180910390a25050565b60008054906101000a900473ffffffffffffffffffffffffffffffffffffffff1673ffffffffffffffffffffffffffffffffffffffff163373ffffffffffffffffffffffffffffffffffffffff1614610c69576040517f08c379a0000000000000000000000000000000000000000000000000000000008152600401610c60906115b8565b60405180910390fd5b60006006811115610c7d57610c7c61110d565b5b600160008673ffffffffffffffffffffffffffffffffffffffff1673ffffffffffffffffffffffffffffffffffffffff16815260200190815260200160002060020160149054906101000a900460ff166006811115610cdf57610cde61110d565b5b14610d1f576040517f08c379a0000000000000000000000000000000000000000000000000000000008152600401610d16906117c5565b60405180910390fd5b82600160008673ffffffffffffffffffffffffffffffffffffffff1673ffffffffffffffffffffffffffffffffffffffff1681526020019081526020016000206000019081610d6e919061197c565b5081600160008673ffffffffffffffffffffffffffffffffffffffff1673ffffffffffffffffffffffffffffffffffffffff1681526020019081526020016000206001019081610dbe919061197c565b5083600160008673ffffffffffffffffffffffffffffffffffffffff1673ffffffffffffffffffffffffffffffffffffffff16815260200190815260200160002060020160006101000a81548173ffffffffffffffffffffffffffffffffffffffff021916908373ffffffffffffffffffffffffffffffffffffffff160217905550806006811115610e5357610e5261110d565b5b600160008673ffffffffffffffffffffffffffffffffffffffff1673ffffffffffffffffffffffffffffffffffffffff16815260200190815260200160002060020160146101000a81548160ff02191690836006811115610eb757610eb661110d565b5b02179055506002849080600181540180825580915050600190039060005260206000200160009091909190916101000a81548173ffffffffffffffffffffffffffffffffffffffff021916908373ffffffffffffffffffffffffffffffffffffffff1602179055508373ffffffffffffffffffffffffffffffffffffffff167f4578d2996968543afa1dfb0791664b8fb16108663190bcf1f68e698c4589db1984604051610f659190611a4e565b60405180910390a250505050565b606080600080610fc060028681548110610f9057610f8f611a70565b5b9060005260206000200160009054906101000a900473ffffffffffffffffffffffffffffffffffffffff166103c9565b93509350935093509193509193565b6000604051905090565b600080fd5b600080fd5b600073ffffffffffffffffffffffffffffffffffffffff82169050919050565b600061100e82610fe3565b9050919050565b61101e81611003565b811461102957600080fd5b50565b60008135905061103b81611015565b92915050565b60006020828403121561105757611056610fd9565b5b60006110658482850161102c565b91505092915050565b600081519050919050565b600082825260208201905092915050565b60005b838110156110a857808201518184015260208101905061108d565b60008484015250505050565b6000601f19601f8301169050919050565b60006110d08261106e565b6110da8185611079565b93506110ea81856020860161108a565b6110f3816110b4565b840191505092915050565b61110781611003565b82525050565b7f4e487b7100000000000000000000000000000000000000000000000000000000600052602160045260246000fd5b6007811061114d5761114c61110d565b5b50565b600081905061115e8261113c565b919050565b600061116e82611150565b9050919050565b61117e81611163565b82525050565b6000608082019050818103600083015261119e81876110c5565b905081810360208301526111b281866110c5565b90506111c160408301856110fe565b6111ce6060830184611175565b95945050505050565b6000819050919050565b6111ea816111d7565b82525050565b600060208201905061120560008301846111e1565b92915050565b6000608082019050818103600083015261122581876110c5565b9050818103602083015261123981866110c5565b905061124860408301856110fe565b61125560608301846111e1565b95945050505050565b600060208201905061127360008301846110fe565b92915050565b611282816111d7565b811461128d57600080fd5b50565b60008135905061129f81611279565b92915050565b600080604083850312156112bc576112bb610fd9565b5b60006112ca8582860161102c565b92505060206112db85828601611290565b9150509250929050565b600080fd5b600080fd5b7f4e487b7100000000000000000000000000000000000000000000000000000000600052604160045260246000fd5b611327826110b4565b810181811067ffffffffffffffff82111715611346576113456112ef565b5b80604052505050565b6000611359610fcf565b9050611365828261131e565b919050565b600067ffffffffffffffff821115611385576113846112ef565b5b61138e826110b4565b9050602081019050919050565b82818337600083830152505050565b60006113bd6113b88461136a565b61134f565b9050828152602081018484840111156113d9576113d86112ea565b5b6113e484828561139b565b509392505050565b600082601f830112611401576114006112e5565b5b81356114118482602086016113aa565b91505092915050565b6000806000806080858703121561143457611433610fd9565b5b60006114428782880161102c565b945050602085013567ffffffffffffffff81111561146357611462610fde565b5b61146f878288016113ec565b935050604085013567ffffffffffffffff8111156114905761148f610fde565b5b61149c878288016113ec565b92505060606114ad87828801611290565b91505092959194509250565b6000602082840312156114cf576114ce610fd9565b5b60006114dd84828501611290565b91505092915050565b7f4e487b7100000000000000000000000000000000000000000000000000000000600052602260045260246000fd5b6000600282049050600182168061152d57607f821691505b6020821081036115405761153f6114e6565b5b50919050565b7f736f727279212c4f6e79206f776e657220697320616c6c6f77656420746f207660008201527f6973697421000000000000000000000000000000000000000000000000000000602082015250565b60006115a2602583611079565b91506115ad82611546565b604082019050919050565b600060208201905081810360008301526115d181611595565b9050919050565b7f75736572206e6f74207265676973746572656400000000000000000000000000600082015250565b600061160e601383611079565b9150611619826115d8565b602082019050919050565b6000602082019050818103600083015261163d81611601565b9050919050565b60008190508160005260206000209050919050565b6000815461166681611515565b6116708186611079565b9450600182166000811461168b57600181146116a1576116d4565b60ff1983168652811515602002860193506116d4565b6116aa85611644565b60005b838110156116cc578154818901526001820191506020810190506116ad565b808801955050505b50505092915050565b600060408201905081810360008301526116f78185611659565b905061170660208301846111e1565b9392505050565b7f55736572206e6f74207265676973746572656400000000000000000000000000600082015250565b6000611743601383611079565b915061174e8261170d565b602082019050919050565b6000602082019050818103600083015261177281611736565b9050919050565b7f5573657220416c72656164792072656769737465726564000000000000000000600082015250565b60006117af601783611079565b91506117ba82611779565b602082019050919050565b600060208201905081810360008301526117de816117a2565b9050919050565b60006020601f8301049050919050565b600082821b905092915050565b6000600883026118327fffffffffffffffffffffffffffffffffffffffffffffffffffffffffffffffff826117f5565b61183c86836117f5565b95508019841693508086168417925050509392505050565b6000819050919050565b600061187961187461186f846111d7565b611854565b6111d7565b9050919050565b6000819050919050565b6118938361185e565b6118a761189f82611880565b848454611802565b825550505050565b600090565b6118bc6118af565b6118c781848461188a565b505050565b5b818110156118eb576118e06000826118b4565b6001810190506118cd565b5050565b601f8211156119305761190181611644565b61190a846117e5565b81016020851015611919578190505b61192d611925856117e5565b8301826118cc565b50505b505050565b600082821c905092915050565b600061195360001984600802611935565b1980831691505092915050565b600061196c8383611942565b9150826002028217905092915050565b6119858261106e565b67ffffffffffffffff81111561199e5761199d6112ef565b5b6119a88254611515565b6119b38282856118ef565b600060209050601f8311600181146119e657600084156119d4578287015190505b6119de8582611960565b865550611a46565b601f1984166119f486611644565b60005b82811015611a1c578489015182556001820191506020850194506020810190506119f7565b86831015611a395784890151611a35601f891682611942565b8355505b6001600288020188555050505b505050505050565b60006020820190508181036000830152611a6881846110c5565b905092915050565b7f4e487b7100000000000000000000000000000000000000000000000000000000600052603260045260246000fdfea26469706673582212209ef3464d6ace3e8231b27b0ec3bd231f1dac52defb877a4856d018ed516c237964736f6c63430008110033",
  "immutableReferences": {},
  "source": "pragma solidity ^0.8.17;\n\ncontract Admin{\n     address public owner;\n\n    constructor() public{\n        owner=msg.sender;\n    }\n\n    modifier onlyOwner(){\n        require(msg.sender==owner,\"sorry!,Ony owner is allowed to visit!\");\n        _;\n    }\n\n    enum roles{\n        norole,\n        supplier,\n        transporter,\n        manufacturer,\n        distributor,\n        retailer,\n        revoke\n    }\n\n    event UserRegister(address indexed EthAddress, string Name);\n    event UserRoleRevoked(address indexed EthAddress, string Name, uint Role);\n    event UserRoleRessign(address indexed EthAddress, string Name, uint Role);\n\n     struct UserInfo{\n        string name;\n        string location;\n        address ethAddress;\n        roles role;\n    }\n\n      mapping(address => UserInfo) public UsersDetails;\n      address[] users;\n\n    function registerUser(address EthAddress,string memory Name,string memory Location,uint Role) public onlyOwner{\n        require(UsersDetails[EthAddress].role==roles.norole,\"User Already registered\");\n        UsersDetails[EthAddress].name = Name;\n        UsersDetails[EthAddress].location = Location;\n        UsersDetails[EthAddress].ethAddress = EthAddress;\n        UsersDetails[EthAddress].role = roles(Role);\n        users.push(EthAddress);\n        emit UserRegister(EthAddress, Name);\n    }\n\n    function revokeRole(address userAddress) public onlyOwner {\n        require(UsersDetails[userAddress].role!=roles.norole,\"user not registered\");\n        emit UserRoleRevoked(userAddress, UsersDetails[userAddress].name, uint(UsersDetails[userAddress].role));\n        UsersDetails[userAddress].role=roles(6);\n    }\n\n    function reassignRole(address userAddress,uint Role) public onlyOwner {\n          require(UsersDetails[userAddress].role != roles.norole, \"User not registered\");\n        UsersDetails[userAddress].role = roles(Role);\n        emit UserRoleRessign(userAddress, UsersDetails[userAddress].name,uint(UsersDetails[userAddress].role));\n    }\n\n    /***********************************************User Section****************************************************/\n\n   function getUserInfo(address userAddress) public view returns(string memory,string memory,address,uint){\n       return (\n           UsersDetails[userAddress].name,\n           UsersDetails[userAddress].location,\n           UsersDetails[userAddress].ethAddress,\n           uint(UsersDetails[userAddress].role)\n       );\n   }\n\n   function getUsersCount() public view returns(uint count){\n       return users.length;\n   }\n\n   function getUserByIndex(uint index) public view returns(string memory,string memory,address,uint){\n       return getUserInfo(users[index]);\n   }\n\n   function getRole(address _address) public view returns(uint){\n       return uint(UsersDetails[_address].role);\n   }\n\n}",
  "sourcePath": "C:\\Users\\Farhan\\.vscode\\SupplyChain\\contracts\\Admin.sol",
  "compiler": {
    "name": "solc",
    "version": "0.8.17+commit.8df45f5f.Emscripten.clang"
  },
  "schemaVersion": "3.4.11",
  "updatedAt": "2023-04-05T16:55:31.447Z",
  "networkType": "ethereum",
  "devdoc": {
    "kind": "dev",
    "methods": {},
    "version": 1
  },
  "userdoc": {
    "kind": "user",
    "methods": {},
    "version": 1
  }
}