{
  "contractName": "Distributor",
  "abi": [
    {
      "inputs": [
        {
          "internalType": "address",
          "name": "_batchId",
          "type": "address"
        },
        {
          "internalType": "address",
          "name": "_sender",
          "type": "address"
        },
        {
          "internalType": "address",
          "name": "_shipper",
          "type": "address"
        },
        {
          "internalType": "address",
          "name": "_retailer",
          "type": "address"
        }
      ],
      "stateMutability": "nonpayable",
      "type": "constructor"
    },
    {
      "inputs": [],
      "name": "batchId",
      "outputs": [
        {
          "internalType": "address",
          "name": "",
          "type": "address"
        }
      ],
      "stateMutability": "view",
      "type": "function"
    },
    {
      "inputs": [],
      "name": "getBatchIdStatus",
      "outputs": [
        {
          "internalType": "uint256",
          "name": "",
          "type": "uint256"
        }
      ],
      "stateMutability": "view",
      "type": "function"
    },
    {
      "inputs": [
        {
          "internalType": "address",
          "name": "_batchId",
          "type": "address"
        },
        {
          "internalType": "address",
          "name": "_shipper",
          "type": "address"
        }
      ],
      "name": "pickPackageForRetailer",
      "outputs": [],
      "stateMutability": "nonpayable",
      "type": "function"
    },
    {
      "inputs": [
        {
          "internalType": "address",
          "name": "_batchId",
          "type": "address"
        },
        {
          "internalType": "address",
          "name": "_receiver",
          "type": "address"
        }
      ],
      "name": "receivePackageRetailer",
      "outputs": [],
      "stateMutability": "nonpayable",
      "type": "function"
    }
  ],
  "bytecode": "0x608060405234801561001057600080fd5b506040516108a03803806108a0833981810160405281019061003291906101e2565b826000806101000a81548173ffffffffffffffffffffffffffffffffffffffff021916908373ffffffffffffffffffffffffffffffffffffffff16021790555083600160006101000a81548173ffffffffffffffffffffffffffffffffffffffff021916908373ffffffffffffffffffffffffffffffffffffffff16021790555082600260006101000a81548173ffffffffffffffffffffffffffffffffffffffff021916908373ffffffffffffffffffffffffffffffffffffffff16021790555081600360006101000a81548173ffffffffffffffffffffffffffffffffffffffff021916908373ffffffffffffffffffffffffffffffffffffffff16021790555080600460006101000a81548173ffffffffffffffffffffffffffffffffffffffff021916908373ffffffffffffffffffffffffffffffffffffffff16021790555050505050610249565b600080fd5b600073ffffffffffffffffffffffffffffffffffffffff82169050919050565b60006101af82610184565b9050919050565b6101bf816101a4565b81146101ca57600080fd5b50565b6000815190506101dc816101b6565b92915050565b600080600080608085870312156101fc576101fb61017f565b5b600061020a878288016101cd565b945050602061021b878288016101cd565b935050604061022c878288016101cd565b925050606061023d878288016101cd565b91505092959194509250565b610648806102586000396000f3fe608060405234801561001057600080fd5b506004361061004c5760003560e01c8063190d65de146100515780634972134a1461006d578063b4779a3c1461008b578063e2785eee146100a7575b600080fd5b61006b60048036038101906100669190610410565b6100c5565b005b610075610201565b604051610082919061045f565b60405180910390f35b6100a560048036038101906100a09190610410565b610227565b005b6100af610384565b6040516100bc9190610493565b60405180910390f35b600360009054906101000a900473ffffffffffffffffffffffffffffffffffffffff1673ffffffffffffffffffffffffffffffffffffffff168173ffffffffffffffffffffffffffffffffffffffff1614610155576040517f08c379a000000000000000000000000000000000000000000000000000000000815260040161014c90610531565b60405180910390fd5b6001600281111561016957610168610551565b5b600460146101000a81548160ff0219169083600281111561018d5761018c610551565b5b02179055508173ffffffffffffffffffffffffffffffffffffffff1663ef488803826040518263ffffffff1660e01b81526004016101cb919061045f565b600060405180830381600087803b1580156101e557600080fd5b505af11580156101f9573d6000803e3d6000fd5b505050505050565b600160009054906101000a900473ffffffffffffffffffffffffffffffffffffffff1681565b8073ffffffffffffffffffffffffffffffffffffffff16600460009054906101000a900473ffffffffffffffffffffffffffffffffffffffff1673ffffffffffffffffffffffffffffffffffffffff16146102b7576040517f08c379a00000000000000000000000000000000000000000000000000000000081526004016102ae906105f2565b60405180910390fd5b6002808111156102ca576102c9610551565b5b600460146101000a81548160ff021916908360028111156102ee576102ed610551565b5b02179055508173ffffffffffffffffffffffffffffffffffffffff1663f64cd21e600460009054906101000a900473ffffffffffffffffffffffffffffffffffffffff166040518263ffffffff1660e01b815260040161034e919061045f565b600060405180830381600087803b15801561036857600080fd5b505af115801561037c573d6000803e3d6000fd5b505050505050565b6000600460149054906101000a900460ff1660028111156103a8576103a7610551565b5b905090565b600080fd5b600073ffffffffffffffffffffffffffffffffffffffff82169050919050565b60006103dd826103b2565b9050919050565b6103ed816103d2565b81146103f857600080fd5b50565b60008135905061040a816103e4565b92915050565b60008060408385031215610427576104266103ad565b5b6000610435858286016103fb565b9250506020610446858286016103fb565b9150509250929050565b610459816103d2565b82525050565b60006020820190506104746000830184610450565b92915050565b6000819050919050565b61048d8161047a565b82525050565b60006020820190506104a86000830184610484565b92915050565b600082825260208201905092915050565b7f4f6e6c79205368697070657220697320616c6c6f77656420746f20706963682060008201527f7061636b61676500000000000000000000000000000000000000000000000000602082015250565b600061051b6027836104ae565b9150610526826104bf565b604082019050919050565b6000602082019050818103600083015261054a8161050e565b9050919050565b7f4e487b7100000000000000000000000000000000000000000000000000000000600052602160045260246000fd5b7f4f6e6c7920726563656976657220697320616c6c6f77656420746f207265636560008201527f6976650000000000000000000000000000000000000000000000000000000000602082015250565b60006105dc6023836104ae565b91506105e782610580565b604082019050919050565b6000602082019050818103600083015261060b816105cf565b905091905056fea2646970667358221220747fbfd5e6e87e01090e20c22729e2070c95fef7b7a0e48985e2d64a7e889ecb64736f6c63430008110033",
  "immutableReferences": {},
  "source": "pragma solidity ^0.8.17;\n\nimport \"./Medicine.sol\";\n\ncontract Distributor{\n    address owner;\n    enum packageStatus{atCreator,picked,delivered}\n\n    address public batchId;\n    address sender;\n    address shipper;\n    address retailer;\n    packageStatus status;\n\n    constructor(\n        address _batchId,\n        address _sender,\n        address _shipper,\n        address _retailer\n    ) public {\n        owner=_sender;\n        batchId=_batchId;\n        sender=_sender;\n        shipper=_shipper;\n        retailer=_retailer;\n    }\n\n    function getBatchIdStatus() public view returns(uint){\n        return uint(status);\n    }\n\n    function pickPackageForRetailer(address _batchId,address _shipper) public {\n        require(_shipper==shipper,\"Only Shipper is allowed to pich package\");\n        status=packageStatus(1);\n        Medicine(_batchId).pickPackageRetailer(_shipper);\n    }\n\n    function receivePackageRetailer(address _batchId,address _receiver) public {\n        require(retailer==_receiver,\"Only receiver is allowed to receive\");\n        status=packageStatus(2);\n        Medicine(_batchId).receivePackageRetailer(retailer);\n    }\n\n\n    \n\n\n\n}",
  "sourcePath": "C:\\Users\\Farhan\\.vscode\\SupplyChain\\contracts\\Distributor.sol",
  "compiler": {
    "name": "solc",
    "version": "0.8.17+commit.8df45f5f.Emscripten.clang"
  },
  "schemaVersion": "3.4.11",
  "updatedAt": "2023-04-05T16:55:18.056Z",
  "devdoc": {
    "kind": "dev",
    "methods": {},
    "version": 1
  },
  "userdoc": {
    "kind": "user",
    "methods": {},
    "version": 1
  }
}