{
  "contractName": "MedCycle",
  "abi": [
    {
      "inputs": [
        {
          "internalType": "address",
          "name": "_admin",
          "type": "address"
        }
      ],
      "stateMutability": "nonpayable",
      "type": "constructor"
    },
    {
      "anonymous": false,
      "inputs": [
        {
          "indexed": true,
          "internalType": "address",
          "name": "BatchId",
          "type": "address"
        },
        {
          "indexed": true,
          "internalType": "address",
          "name": "Manufacturer",
          "type": "address"
        },
        {
          "indexed": false,
          "internalType": "address",
          "name": "shipper",
          "type": "address"
        },
        {
          "indexed": true,
          "internalType": "address",
          "name": "Receiver",
          "type": "address"
        }
      ],
      "name": "MedicineNewBatch",
      "type": "event"
    },
    {
      "anonymous": false,
      "inputs": [
        {
          "indexed": false,
          "internalType": "address",
          "name": "BatchID",
          "type": "address"
        },
        {
          "indexed": true,
          "internalType": "address",
          "name": "Retailer",
          "type": "address"
        },
        {
          "indexed": false,
          "internalType": "uint256",
          "name": "status",
          "type": "uint256"
        }
      ],
      "name": "MedicineStatus",
      "type": "event"
    },
    {
      "inputs": [
        {
          "internalType": "address",
          "name": "rawmaterialAddress",
          "type": "address"
        }
      ],
      "name": "rawPackageReceived",
      "outputs": [],
      "stateMutability": "nonpayable",
      "type": "function"
    },
    {
      "inputs": [
        {
          "internalType": "address",
          "name": "_manufacturer",
          "type": "address"
        }
      ],
      "name": "getPackagesCountManufacturer",
      "outputs": [
        {
          "internalType": "uint256",
          "name": "",
          "type": "uint256"
        }
      ],
      "stateMutability": "view",
      "type": "function"
    },
    {
      "inputs": [
        {
          "internalType": "uint256",
          "name": "index",
          "type": "uint256"
        },
        {
          "internalType": "address",
          "name": "_manufacturer",
          "type": "address"
        }
      ],
      "name": "getPackageIdByIndexManufacturer",
      "outputs": [
        {
          "internalType": "address",
          "name": "",
          "type": "address"
        }
      ],
      "stateMutability": "view",
      "type": "function"
    },
    {
      "inputs": [
        {
          "internalType": "string",
          "name": "_description",
          "type": "string"
        },
        {
          "internalType": "address",
          "name": "_rawmaterial",
          "type": "address"
        },
        {
          "internalType": "uint256",
          "name": "_quantity",
          "type": "uint256"
        },
        {
          "internalType": "address",
          "name": "_shipper",
          "type": "address"
        },
        {
          "internalType": "address",
          "name": "_distributor",
          "type": "address"
        }
      ],
      "name": "manufactureMedicine",
      "outputs": [],
      "stateMutability": "nonpayable",
      "type": "function"
    },
    {
      "inputs": [
        {
          "internalType": "address",
          "name": "_manufacturer",
          "type": "address"
        }
      ],
      "name": "getManufacturedMedicineCountManufacturer",
      "outputs": [
        {
          "internalType": "uint256",
          "name": "",
          "type": "uint256"
        }
      ],
      "stateMutability": "view",
      "type": "function"
    },
    {
      "inputs": [
        {
          "internalType": "uint256",
          "name": "index",
          "type": "uint256"
        },
        {
          "internalType": "address",
          "name": "_manufacturer",
          "type": "address"
        }
      ],
      "name": "getManufacturedMedicineIdByIndexManufacturer",
      "outputs": [
        {
          "internalType": "address",
          "name": "",
          "type": "address"
        }
      ],
      "stateMutability": "view",
      "type": "function"
    },
    {
      "inputs": [
        {
          "internalType": "string",
          "name": "_hash",
          "type": "string"
        }
      ],
      "name": "setHash",
      "outputs": [],
      "stateMutability": "nonpayable",
      "type": "function"
    },
    {
      "inputs": [],
      "name": "getHash",
      "outputs": [
        {
          "internalType": "string",
          "name": "",
          "type": "string"
        }
      ],
      "stateMutability": "view",
      "type": "function"
    },
    {
      "inputs": [
        {
          "internalType": "address",
          "name": "_batchId",
          "type": "address"
        },
        {
          "internalType": "address",
          "name": "_shipper",
          "type": "address"
        },
        {
          "internalType": "address",
          "name": "_retailer",
          "type": "address"
        }
      ],
      "name": "transferMedicineDistributorToRetailer",
      "outputs": [],
      "stateMutability": "nonpayable",
      "type": "function"
    },
    {
      "inputs": [
        {
          "internalType": "address",
          "name": "_distributor",
          "type": "address"
        }
      ],
      "name": "getBatchesCountDistributorToRetailer",
      "outputs": [
        {
          "internalType": "uint256",
          "name": "",
          "type": "uint256"
        }
      ],
      "stateMutability": "view",
      "type": "function"
    },
    {
      "inputs": [
        {
          "internalType": "uint256",
          "name": "index",
          "type": "uint256"
        },
        {
          "internalType": "address",
          "name": "_distributor",
          "type": "address"
        }
      ],
      "name": "getBatchesIdByIndexDistributorToRetailer",
      "outputs": [
        {
          "internalType": "address",
          "name": "",
          "type": "address"
        }
      ],
      "stateMutability": "view",
      "type": "function"
    },
    {
      "inputs": [
        {
          "internalType": "address",
          "name": "_batchId",
          "type": "address"
        }
      ],
      "name": "getSubContractDistributorToRetailer",
      "outputs": [
        {
          "internalType": "address",
          "name": "",
          "type": "address"
        }
      ],
      "stateMutability": "view",
      "type": "function"
    },
    {
      "inputs": [
        {
          "internalType": "address",
          "name": "_batchId",
          "type": "address"
        },
        {
          "internalType": "address",
          "name": "_distributorAddress",
          "type": "address"
        }
      ],
      "name": "medicineReceivedAtRetailer",
      "outputs": [],
      "stateMutability": "nonpayable",
      "type": "function"
    },
    {
      "inputs": [
        {
          "internalType": "address",
          "name": "_batchId",
          "type": "address"
        },
        {
          "internalType": "uint256",
          "name": "_status",
          "type": "uint256"
        }
      ],
      "name": "updateSaleStatus",
      "outputs": [],
      "stateMutability": "nonpayable",
      "type": "function"
    },
    {
      "inputs": [
        {
          "internalType": "address",
          "name": "_batchId",
          "type": "address"
        }
      ],
      "name": "salesInfo",
      "outputs": [
        {
          "internalType": "uint256",
          "name": "",
          "type": "uint256"
        }
      ],
      "stateMutability": "view",
      "type": "function"
    },
    {
      "inputs": [
        {
          "internalType": "address",
          "name": "_retailer",
          "type": "address"
        }
      ],
      "name": "getBatchesCountRetailer",
      "outputs": [
        {
          "internalType": "uint256",
          "name": "",
          "type": "uint256"
        }
      ],
      "stateMutability": "view",
      "type": "function"
    },
    {
      "inputs": [
        {
          "internalType": "uint256",
          "name": "index",
          "type": "uint256"
        },
        {
          "internalType": "address",
          "name": "_retailer",
          "type": "address"
        }
      ],
      "name": "getBatchedIdByIndexRetailer",
      "outputs": [
        {
          "internalType": "address",
          "name": "",
          "type": "address"
        }
      ],
      "stateMutability": "view",
      "type": "function"
    }
  ],
  "bytecode": "0x60806040523480156200001157600080fd5b50604051620050f0380380620050f08339818101604052810190620000379190620000e8565b806000806101000a81548173ffffffffffffffffffffffffffffffffffffffff021916908373ffffffffffffffffffffffffffffffffffffffff160217905550506200011a565b600080fd5b600073ffffffffffffffffffffffffffffffffffffffff82169050919050565b6000620000b08262000083565b9050919050565b620000c281620000a3565b8114620000ce57600080fd5b50565b600081519050620000e281620000b7565b92915050565b6000602082840312156200010157620001006200007e565b5b60006200011184828501620000d1565b91505092915050565b614fc6806200012a6000396000f3fe60806040523480156200001157600080fd5b5060043610620001245760003560e01c8063b4b5952811620000b1578063d13319c4116200007b578063d13319c41462000343578063d85e970f1462000365578063e867adc8146200039b578063eae3c20714620003d1578063f8d7e19b14620003f15762000124565b8063b4b595281462000297578063bb8ee1c514620002b7578063bc8c5b1c14620002ed578063c26c5bab146200030d5762000124565b806381a1452f11620000f357806381a1452f14620001bf5780638c59adc214620001f55780639b71cc67146200022b578063b0234f3f14620002615762000124565b80630159255914620001295780631ed83fd4146200015f5780634a9f386f146200017f57806380c2d0d4146200019f575b600080fd5b62000147600480360381019062000141919062001f9f565b62000427565b60405162000156919062001ff7565b60405180910390f35b6200017d600480360381019062000177919062002176565b620005d3565b005b6200019d6004803603810190620001979190620021c7565b62000625565b005b620001bd6004803603810190620001b791906200226e565b620008b5565b005b620001dd6004803603810190620001d79190620022ca565b62000be8565b604051620001ec91906200230d565b60405180910390f35b6200021360048036038101906200020d9190620022ca565b62000d57565b60405162000222919062001ff7565b60405180910390f35b620002496004803603810190620002439190620022ca565b62000dc0565b6040516200025891906200230d565b60405180910390f35b6200027f600480360381019062000279919062001f9f565b62000f2f565b6040516200028e919062001ff7565b60405180910390f35b620002b56004803603810190620002af91906200232a565b620010db565b005b620002d56004803603810190620002cf9190620022ca565b6200126e565b604051620002e491906200230d565b60405180910390f35b6200030b6004803603810190620003059190620022ca565b620012d9565b005b6200032b600480360381019062000325919062001f9f565b6200150e565b6040516200033a919062001ff7565b60405180910390f35b6200034d620016ba565b6040516200035c9190620023fa565b60405180910390f35b6200038360048036038101906200037d9190620022ca565b62001791565b6040516200039291906200230d565b60405180910390f35b620003b96004803603810190620003b39190620022ca565b62001900565b604051620003c891906200230d565b60405180910390f35b620003ef6004803603810190620003e991906200241e565b62001a6f565b005b6200040f600480360381019062000409919062001f9f565b62001d23565b6040516200041e919062001ff7565b60405180910390f35b60006003600681111562000440576200043f62002465565b5b60008054906101000a900473ffffffffffffffffffffffffffffffffffffffff1673ffffffffffffffffffffffffffffffffffffffff166344276733846040518263ffffffff1660e01b81526004016200049b919062001ff7565b602060405180830381865afa158015620004b9573d6000803e3d6000fd5b505050506040513d601f19601f82011682018060405250810190620004df9190620024ab565b6006811115620004f457620004f362002465565b5b600681111562000509576200050862002465565b5b146200054c576040517f08c379a0000000000000000000000000000000000000000000000000000000008152600401620005439062002553565b60405180910390fd5b600160008373ffffffffffffffffffffffffffffffffffffffff1673ffffffffffffffffffffffffffffffffffffffff1681526020019081526020016000208381548110620005a0576200059f62002575565b5b9060005260206000200160009054906101000a900473ffffffffffffffffffffffffffffffffffffffff16905092915050565b80600260003373ffffffffffffffffffffffffffffffffffffffff1673ffffffffffffffffffffffffffffffffffffffff1681526020019081526020016000209081620006219190620027da565b5050565b600360068111156200063c576200063b62002465565b5b60008054906101000a900473ffffffffffffffffffffffffffffffffffffffff1673ffffffffffffffffffffffffffffffffffffffff166344276733336040518263ffffffff1660e01b815260040162000697919062001ff7565b602060405180830381865afa158015620006b5573d6000803e3d6000fd5b505050506040513d601f19601f82011682018060405250810190620006db9190620024ab565b6006811115620006f057620006ef62002465565b5b600681111562000705576200070462002465565b5b1462000748576040517f08c379a00000000000000000000000000000000000000000000000000000000081526004016200073f9062002553565b60405180910390fd5b60003386868686866040516200075e9062001ecf565b6200076f96959493929190620028c1565b604051809103906000f0801580156200078c573d6000803e3d6000fd5b509050600360003373ffffffffffffffffffffffffffffffffffffffff1673ffffffffffffffffffffffffffffffffffffffff168152602001908152602001600020819080600181540180825580915050600190039060005260206000200160009091909190916101000a81548173ffffffffffffffffffffffffffffffffffffffff021916908373ffffffffffffffffffffffffffffffffffffffff1602179055508173ffffffffffffffffffffffffffffffffffffffff163373ffffffffffffffffffffffffffffffffffffffff168273ffffffffffffffffffffffffffffffffffffffff167fa464e8d0d73596ec44ad2f56ca60a8fc4ef75e1b7b0b3f46fe1e073fb5da11b586604051620008a5919062001ff7565b60405180910390a4505050505050565b60046006811115620008cc57620008cb62002465565b5b60008054906101000a900473ffffffffffffffffffffffffffffffffffffffff1673ffffffffffffffffffffffffffffffffffffffff166344276733336040518263ffffffff1660e01b815260040162000927919062001ff7565b602060405180830381865afa15801562000945573d6000803e3d6000fd5b505050506040513d601f19601f820116820180604052508101906200096b9190620024ab565b600681111562000980576200097f62002465565b5b600681111562000995576200099462002465565b5b14801562000a3f57508273ffffffffffffffffffffffffffffffffffffffff1663bfe109286040518163ffffffff1660e01b8152600401602060405180830381865afa158015620009ea573d6000803e3d6000fd5b505050506040513d601f19601f8201168201806040525081019062000a1091906200294c565b73ffffffffffffffffffffffffffffffffffffffff163373ffffffffffffffffffffffffffffffffffffffff16145b62000a81576040517f08c379a000000000000000000000000000000000000000000000000000000000815260040162000a7890620029f4565b60405180910390fd5b60008333848460405162000a959062001edd565b62000aa4949392919062002a16565b604051809103906000f08015801562000ac1573d6000803e3d6000fd5b509050600460003373ffffffffffffffffffffffffffffffffffffffff1673ffffffffffffffffffffffffffffffffffffffff168152602001908152602001600020819080600181540180825580915050600190039060005260206000200160009091909190916101000a81548173ffffffffffffffffffffffffffffffffffffffff021916908373ffffffffffffffffffffffffffffffffffffffff16021790555080600560008673ffffffffffffffffffffffffffffffffffffffff1673ffffffffffffffffffffffffffffffffffffffff16815260200190815260200160002060006101000a81548173ffffffffffffffffffffffffffffffffffffffff021916908373ffffffffffffffffffffffffffffffffffffffff16021790555050505050565b60006003600681111562000c015762000c0062002465565b5b60008054906101000a900473ffffffffffffffffffffffffffffffffffffffff1673ffffffffffffffffffffffffffffffffffffffff166344276733846040518263ffffffff1660e01b815260040162000c5c919062001ff7565b602060405180830381865afa15801562000c7a573d6000803e3d6000fd5b505050506040513d601f19601f8201168201806040525081019062000ca09190620024ab565b600681111562000cb55762000cb462002465565b5b600681111562000cca5762000cc962002465565b5b1462000d0d576040517f08c379a000000000000000000000000000000000000000000000000000000000815260040162000d049062002553565b60405180910390fd5b600360008373ffffffffffffffffffffffffffffffffffffffff1673ffffffffffffffffffffffffffffffffffffffff168152602001908152602001600020805490509050919050565b6000600560008373ffffffffffffffffffffffffffffffffffffffff1673ffffffffffffffffffffffffffffffffffffffff16815260200190815260200160002060009054906101000a900473ffffffffffffffffffffffffffffffffffffffff169050919050565b60006003600681111562000dd95762000dd862002465565b5b60008054906101000a900473ffffffffffffffffffffffffffffffffffffffff1673ffffffffffffffffffffffffffffffffffffffff166344276733846040518263ffffffff1660e01b815260040162000e34919062001ff7565b602060405180830381865afa15801562000e52573d6000803e3d6000fd5b505050506040513d601f19601f8201168201806040525081019062000e789190620024ab565b600681111562000e8d5762000e8c62002465565b5b600681111562000ea25762000ea162002465565b5b1462000ee5576040517f08c379a000000000000000000000000000000000000000000000000000000000815260040162000edc9062002553565b60405180910390fd5b600160008373ffffffffffffffffffffffffffffffffffffffff1673ffffffffffffffffffffffffffffffffffffffff168152602001908152602001600020805490509050919050565b60006004600681111562000f485762000f4762002465565b5b60008054906101000a900473ffffffffffffffffffffffffffffffffffffffff1673ffffffffffffffffffffffffffffffffffffffff166344276733846040518263ffffffff1660e01b815260040162000fa3919062001ff7565b602060405180830381865afa15801562000fc1573d6000803e3d6000fd5b505050506040513d601f19601f8201168201806040525081019062000fe79190620024ab565b600681111562000ffc5762000ffb62002465565b5b600681111562001011576200101062002465565b5b1462001054576040517f08c379a00000000000000000000000000000000000000000000000000000000081526004016200104b90620029f4565b60405180910390fd5b600460008373ffffffffffffffffffffffffffffffffffffffff1673ffffffffffffffffffffffffffffffffffffffff1681526020019081526020016000208381548110620010a857620010a762002575565b5b9060005260206000200160009054906101000a900473ffffffffffffffffffffffffffffffffffffffff16905092915050565b8173ffffffffffffffffffffffffffffffffffffffff1663f64cd21e336040518263ffffffff1660e01b815260040162001116919062001ff7565b600060405180830381600087803b1580156200113157600080fd5b505af115801562001146573d6000803e3d6000fd5b50505050600660003373ffffffffffffffffffffffffffffffffffffffff1673ffffffffffffffffffffffffffffffffffffffff168152602001908152602001600020829080600181540180825580915050600190039060005260206000200160009091909190916101000a81548173ffffffffffffffffffffffffffffffffffffffff021916908373ffffffffffffffffffffffffffffffffffffffff1602179055506001600481111562001201576200120062002465565b5b600760008473ffffffffffffffffffffffffffffffffffffffff1673ffffffffffffffffffffffffffffffffffffffff16815260200190815260200160002060006101000a81548160ff0219169083600481111562001265576200126462002465565b5b02179055505050565b6000600760008373ffffffffffffffffffffffffffffffffffffffff1673ffffffffffffffffffffffffffffffffffffffff16815260200190815260200160002060009054906101000a900460ff166004811115620012d257620012d162002465565b5b9050919050565b60036006811115620012f057620012ef62002465565b5b60008054906101000a900473ffffffffffffffffffffffffffffffffffffffff1673ffffffffffffffffffffffffffffffffffffffff166344276733336040518263ffffffff1660e01b81526004016200134b919062001ff7565b602060405180830381865afa15801562001369573d6000803e3d6000fd5b505050506040513d601f19601f820116820180604052508101906200138f9190620024ab565b6006811115620013a457620013a362002465565b5b6006811115620013b957620013b862002465565b5b14620013fc576040517f08c379a0000000000000000000000000000000000000000000000000000000008152600401620013f39062002ad9565b60405180910390fd5b8073ffffffffffffffffffffffffffffffffffffffff16631f29567a336040518263ffffffff1660e01b815260040162001437919062001ff7565b600060405180830381600087803b1580156200145257600080fd5b505af115801562001467573d6000803e3d6000fd5b50505050600160003373ffffffffffffffffffffffffffffffffffffffff1673ffffffffffffffffffffffffffffffffffffffff168152602001908152602001600020819080600181540180825580915050600190039060005260206000200160009091909190916101000a81548173ffffffffffffffffffffffffffffffffffffffff021916908373ffffffffffffffffffffffffffffffffffffffff16021790555050565b60006003600681111562001527576200152662002465565b5b60008054906101000a900473ffffffffffffffffffffffffffffffffffffffff1673ffffffffffffffffffffffffffffffffffffffff166344276733846040518263ffffffff1660e01b815260040162001582919062001ff7565b602060405180830381865afa158015620015a0573d6000803e3d6000fd5b505050506040513d601f19601f82011682018060405250810190620015c69190620024ab565b6006811115620015db57620015da62002465565b5b6006811115620015f057620015ef62002465565b5b1462001633576040517f08c379a00000000000000000000000000000000000000000000000000000000081526004016200162a9062002553565b60405180910390fd5b600360008373ffffffffffffffffffffffffffffffffffffffff1673ffffffffffffffffffffffffffffffffffffffff168152602001908152602001600020838154811062001687576200168662002575565b5b9060005260206000200160009054906101000a900473ffffffffffffffffffffffffffffffffffffffff16905092915050565b6060600260003373ffffffffffffffffffffffffffffffffffffffff1673ffffffffffffffffffffffffffffffffffffffff16815260200190815260200160002080546200170890620025d3565b80601f01602080910402602001604051908101604052809291908181526020018280546200173690620025d3565b8015620017875780601f106200175b5761010080835404028352916020019162001787565b820191906000526020600020905b8154815290600101906020018083116200176957829003601f168201915b5050505050905090565b600060046006811115620017aa57620017a962002465565b5b60008054906101000a900473ffffffffffffffffffffffffffffffffffffffff1673ffffffffffffffffffffffffffffffffffffffff166344276733846040518263ffffffff1660e01b815260040162001805919062001ff7565b602060405180830381865afa15801562001823573d6000803e3d6000fd5b505050506040513d601f19601f82011682018060405250810190620018499190620024ab565b60068111156200185e576200185d62002465565b5b600681111562001873576200187262002465565b5b14620018b6576040517f08c379a0000000000000000000000000000000000000000000000000000000008152600401620018ad90620029f4565b60405180910390fd5b600460008373ffffffffffffffffffffffffffffffffffffffff1673ffffffffffffffffffffffffffffffffffffffff168152602001908152602001600020805490509050919050565b60006005600681111562001919576200191862002465565b5b60008054906101000a900473ffffffffffffffffffffffffffffffffffffffff1673ffffffffffffffffffffffffffffffffffffffff166344276733846040518263ffffffff1660e01b815260040162001974919062001ff7565b602060405180830381865afa15801562001992573d6000803e3d6000fd5b505050506040513d601f19601f82011682018060405250810190620019b89190620024ab565b6006811115620019cd57620019cc62002465565b5b6006811115620019e257620019e162002465565b5b1462001a25576040517f08c379a000000000000000000000000000000000000000000000000000000000815260040162001a1c9062002b71565b60405180910390fd5b600660008373ffffffffffffffffffffffffffffffffffffffff1673ffffffffffffffffffffffffffffffffffffffff168152602001908152602001600020805490509050919050565b6005600681111562001a865762001a8562002465565b5b60008054906101000a900473ffffffffffffffffffffffffffffffffffffffff1673ffffffffffffffffffffffffffffffffffffffff166344276733336040518263ffffffff1660e01b815260040162001ae1919062001ff7565b602060405180830381865afa15801562001aff573d6000803e3d6000fd5b505050506040513d601f19601f8201168201806040525081019062001b259190620024ab565b600681111562001b3a5762001b3962002465565b5b600681111562001b4f5762001b4e62002465565b5b1462001b92576040517f08c379a000000000000000000000000000000000000000000000000000000000815260040162001b899062002be3565b60405180910390fd5b6001600481111562001ba95762001ba862002465565b5b600760008473ffffffffffffffffffffffffffffffffffffffff1673ffffffffffffffffffffffffffffffffffffffff16815260200190815260200160002060009054906101000a900460ff16600481111562001c0b5762001c0a62002465565b5b1462001c4e576040517f08c379a000000000000000000000000000000000000000000000000000000000815260040162001c459062002c55565b60405180910390fd5b80600481111562001c645762001c6362002465565b5b600760008473ffffffffffffffffffffffffffffffffffffffff1673ffffffffffffffffffffffffffffffffffffffff16815260200190815260200160002060006101000a81548160ff0219169083600481111562001cc85762001cc762002465565b5b02179055503373ffffffffffffffffffffffffffffffffffffffff167f778762ccb04f5a8838ed8914b13eb6f118224696959cbfa0cfea54133f76a7d5838360405162001d1792919062002c77565b60405180910390a25050565b60006005600681111562001d3c5762001d3b62002465565b5b60008054906101000a900473ffffffffffffffffffffffffffffffffffffffff1673ffffffffffffffffffffffffffffffffffffffff166344276733846040518263ffffffff1660e01b815260040162001d97919062001ff7565b602060405180830381865afa15801562001db5573d6000803e3d6000fd5b505050506040513d601f19601f8201168201806040525081019062001ddb9190620024ab565b600681111562001df05762001def62002465565b5b600681111562001e055762001e0462002465565b5b1462001e48576040517f08c379a000000000000000000000000000000000000000000000000000000000815260040162001e3f9062002b71565b60405180910390fd5b600660008373ffffffffffffffffffffffffffffffffffffffff1673ffffffffffffffffffffffffffffffffffffffff168152602001908152602001600020838154811062001e9c5762001e9b62002575565b5b9060005260206000200160009054906101000a900473ffffffffffffffffffffffffffffffffffffffff16905092915050565b611a4c8062002ca583390190565b6108a080620046f183390190565b6000604051905090565b600080fd5b600080fd5b6000819050919050565b62001f148162001eff565b811462001f2057600080fd5b50565b60008135905062001f348162001f09565b92915050565b600073ffffffffffffffffffffffffffffffffffffffff82169050919050565b600062001f678262001f3a565b9050919050565b62001f798162001f5a565b811462001f8557600080fd5b50565b60008135905062001f998162001f6e565b92915050565b6000806040838503121562001fb95762001fb862001ef5565b5b600062001fc98582860162001f23565b925050602062001fdc8582860162001f88565b9150509250929050565b62001ff18162001f5a565b82525050565b60006020820190506200200e600083018462001fe6565b92915050565b600080fd5b600080fd5b6000601f19601f8301169050919050565b7f4e487b7100000000000000000000000000000000000000000000000000000000600052604160045260246000fd5b62002069826200201e565b810181811067ffffffffffffffff821117156200208b576200208a6200202f565b5b80604052505050565b6000620020a062001eeb565b9050620020ae82826200205e565b919050565b600067ffffffffffffffff821115620020d157620020d06200202f565b5b620020dc826200201e565b9050602081019050919050565b82818337600083830152505050565b60006200210f6200210984620020b3565b62002094565b9050828152602081018484840111156200212e576200212d62002019565b5b6200213b848285620020e9565b509392505050565b600082601f8301126200215b576200215a62002014565b5b81356200216d848260208601620020f8565b91505092915050565b6000602082840312156200218f576200218e62001ef5565b5b600082013567ffffffffffffffff811115620021b057620021af62001efa565b5b620021be8482850162002143565b91505092915050565b600080600080600060a08688031215620021e657620021e562001ef5565b5b600086013567ffffffffffffffff81111562002207576200220662001efa565b5b620022158882890162002143565b9550506020620022288882890162001f88565b94505060406200223b8882890162001f23565b93505060606200224e8882890162001f88565b9250506080620022618882890162001f88565b9150509295509295909350565b6000806000606084860312156200228a576200228962001ef5565b5b60006200229a8682870162001f88565b9350506020620022ad8682870162001f88565b9250506040620022c08682870162001f88565b9150509250925092565b600060208284031215620022e357620022e262001ef5565b5b6000620022f38482850162001f88565b91505092915050565b620023078162001eff565b82525050565b6000602082019050620023246000830184620022fc565b92915050565b6000806040838503121562002344576200234362001ef5565b5b6000620023548582860162001f88565b9250506020620023678582860162001f88565b9150509250929050565b600081519050919050565b600082825260208201905092915050565b60005b83811015620023ad57808201518184015260208101905062002390565b60008484015250505050565b6000620023c68262002371565b620023d281856200237c565b9350620023e48185602086016200238d565b620023ef816200201e565b840191505092915050565b60006020820190508181036000830152620024168184620023b9565b905092915050565b6000806040838503121562002438576200243762001ef5565b5b6000620024488582860162001f88565b92505060206200245b8582860162001f23565b9150509250929050565b7f4e487b7100000000000000000000000000000000000000000000000000000000600052602160045260246000fd5b600081519050620024a58162001f09565b92915050565b600060208284031215620024c457620024c362001ef5565b5b6000620024d48482850162002494565b91505092915050565b7f4f6e6c79204d616e75666163747572657220697320616c6c6f77656420746f2060008201527f63616c6c20746869730000000000000000000000000000000000000000000000602082015250565b60006200253b6029836200237c565b91506200254882620024dd565b604082019050919050565b600060208201905081810360008301526200256e816200252c565b9050919050565b7f4e487b7100000000000000000000000000000000000000000000000000000000600052603260045260246000fd5b7f4e487b7100000000000000000000000000000000000000000000000000000000600052602260045260246000fd5b60006002820490506001821680620025ec57607f821691505b602082108103620026025762002601620025a4565b5b50919050565b60008190508160005260206000209050919050565b60006020601f8301049050919050565b600082821b905092915050565b6000600883026200266c7fffffffffffffffffffffffffffffffffffffffffffffffffffffffffffffffff826200262d565b6200267886836200262d565b95508019841693508086168417925050509392505050565b6000819050919050565b6000620026bb620026b5620026af8462001eff565b62002690565b62001eff565b9050919050565b6000819050919050565b620026d7836200269a565b620026ef620026e682620026c2565b8484546200263a565b825550505050565b600090565b62002706620026f7565b62002713818484620026cc565b505050565b5b818110156200273b576200272f600082620026fc565b60018101905062002719565b5050565b601f8211156200278a57620027548162002608565b6200275f846200261d565b810160208510156200276f578190505b620027876200277e856200261d565b83018262002718565b50505b505050565b600082821c905092915050565b6000620027af600019846008026200278f565b1980831691505092915050565b6000620027ca83836200279c565b9150826002028217905092915050565b620027e58262002371565b67ffffffffffffffff8111156200280157620028006200202f565b5b6200280d8254620025d3565b6200281a8282856200273f565b600060209050601f8311600181146200285257600084156200283d578287015190505b620028498582620027bc565b865550620028b9565b601f198416620028628662002608565b60005b828110156200288c5784890151825560018201915060208501945060208101905062002865565b86831015620028ac5784890151620028a8601f8916826200279c565b8355505b6001600288020188555050505b505050505050565b600060c082019050620028d8600083018962001fe6565b8181036020830152620028ec8188620023b9565b9050620028fd604083018762001fe6565b6200290c6060830186620022fc565b6200291b608083018562001fe6565b6200292a60a083018462001fe6565b979650505050505050565b600081519050620029468162001f6e565b92915050565b60006020828403121562002965576200296462001ef5565b5b6000620029758482850162002935565b91505092915050565b7f4f6e6c79204469737472696275746f7220697320616c6c6f77656420746f206360008201527f616c6c2074686973000000000000000000000000000000000000000000000000602082015250565b6000620029dc6028836200237c565b9150620029e9826200297e565b604082019050919050565b6000602082019050818103600083015262002a0f81620029cd565b9050919050565b600060808201905062002a2d600083018762001fe6565b62002a3c602083018662001fe6565b62002a4b604083018562001fe6565b62002a5a606083018462001fe6565b95945050505050565b7f4f6e79206d616e7566616374757265722063616e20726563656976652074686560008201527f207061636b616765730000000000000000000000000000000000000000000000602082015250565b600062002ac16029836200237c565b915062002ace8262002a63565b604082019050919050565b6000602082019050818103600083015262002af48162002ab2565b9050919050565b7f4f6e792072657461696c65722063616e2063616c6c20746869732066756e637460008201527f696f6e2100000000000000000000000000000000000000000000000000000000602082015250565b600062002b596024836200237c565b915062002b668262002afb565b604082019050919050565b6000602082019050818103600083015262002b8c8162002b4a565b9050919050565b7f4f6e792072657461696c65722063616e20757064617465207374617475732100600082015250565b600062002bcb601f836200237c565b915062002bd88262002b93565b602082019050919050565b6000602082019050818103600083015262002bfe8162002bbc565b9050919050565b7f4d65646963696e65206973206e6f742061742072657461696c65720000000000600082015250565b600062002c3d601b836200237c565b915062002c4a8262002c05565b602082019050919050565b6000602082019050818103600083015262002c708162002c2e565b9050919050565b600060408201905062002c8e600083018562001fe6565b62002c9d6020830184620022fc565b939250505056fe60806040523480156200001157600080fd5b5060405162001a4c38038062001a4c8339818101604052810190620000379190620003d3565b856000806101000a81548173ffffffffffffffffffffffffffffffffffffffff021916908373ffffffffffffffffffffffffffffffffffffffff16021790555085600560006101000a81548173ffffffffffffffffffffffffffffffffffffffff021916908373ffffffffffffffffffffffffffffffffffffffff1602179055508460019081620000c99190620006cf565b5083600260006101000a81548173ffffffffffffffffffffffffffffffffffffffff021916908373ffffffffffffffffffffffffffffffffffffffff1602179055508260038190555081600460006101000a81548173ffffffffffffffffffffffffffffffffffffffff021916908373ffffffffffffffffffffffffffffffffffffffff16021790555080600660006101000a81548173ffffffffffffffffffffffffffffffffffffffff021916908373ffffffffffffffffffffffffffffffffffffffff160217905550505050505050620007b6565b6000604051905090565b600080fd5b600080fd5b600073ffffffffffffffffffffffffffffffffffffffff82169050919050565b6000620001e182620001b4565b9050919050565b620001f381620001d4565b8114620001ff57600080fd5b50565b6000815190506200021381620001e8565b92915050565b600080fd5b600080fd5b6000601f19601f8301169050919050565b7f4e487b7100000000000000000000000000000000000000000000000000000000600052604160045260246000fd5b6200026e8262000223565b810181811067ffffffffffffffff8211171562000290576200028f62000234565b5b80604052505050565b6000620002a5620001a0565b9050620002b3828262000263565b919050565b600067ffffffffffffffff821115620002d657620002d562000234565b5b620002e18262000223565b9050602081019050919050565b60005b838110156200030e578082015181840152602081019050620002f1565b60008484015250505050565b6000620003316200032b84620002b8565b62000299565b90508281526020810184848401111562000350576200034f6200021e565b5b6200035d848285620002ee565b509392505050565b600082601f8301126200037d576200037c62000219565b5b81516200038f8482602086016200031a565b91505092915050565b6000819050919050565b620003ad8162000398565b8114620003b957600080fd5b50565b600081519050620003cd81620003a2565b92915050565b60008060008060008060c08789031215620003f357620003f2620001aa565b5b60006200040389828a0162000202565b965050602087015167ffffffffffffffff811115620004275762000426620001af565b5b6200043589828a0162000365565b95505060406200044889828a0162000202565b94505060606200045b89828a01620003bc565b93505060806200046e89828a0162000202565b92505060a06200048189828a0162000202565b9150509295509295509295565b600081519050919050565b7f4e487b7100000000000000000000000000000000000000000000000000000000600052602260045260246000fd5b60006002820490506001821680620004e157607f821691505b602082108103620004f757620004f662000499565b5b50919050565b60008190508160005260206000209050919050565b60006020601f8301049050919050565b600082821b905092915050565b600060088302620005617fffffffffffffffffffffffffffffffffffffffffffffffffffffffffffffffff8262000522565b6200056d868362000522565b95508019841693508086168417925050509392505050565b6000819050919050565b6000620005b0620005aa620005a48462000398565b62000585565b62000398565b9050919050565b6000819050919050565b620005cc836200058f565b620005e4620005db82620005b7565b8484546200052f565b825550505050565b600090565b620005fb620005ec565b62000608818484620005c1565b505050565b5b81811015620006305762000624600082620005f1565b6001810190506200060e565b5050565b601f8211156200067f576200064981620004fd565b620006548462000512565b8101602085101562000664578190505b6200067c620006738562000512565b8301826200060d565b50505b505050565b600082821c905092915050565b6000620006a46000198460080262000684565b1980831691505092915050565b6000620006bf838362000691565b9150826002028217905092915050565b620006da826200048e565b67ffffffffffffffff811115620006f657620006f562000234565b5b620007028254620004c8565b6200070f82828562000634565b600060209050601f83116001811462000747576000841562000732578287015190505b6200073e8582620006b1565b865550620007ae565b601f1984166200075786620004fd565b60005b8281101562000781578489015182556001820191506020850194506020810190506200075a565b86831015620007a157848901516200079d601f89168262000691565b8355505b6001600288020188555050505b505050505050565b61128680620007c66000396000f3fe608060405234801561001057600080fd5b50600436106100885760003560e01c8063ef4888031161005b578063ef48880314610103578063f64cd21e1461011f578063f74fdde11461013b578063fc7923311461015757610088565b80634c1249fc1461008d57806373b037db146100ab5780637b1df25c146100c9578063bfe10928146100e5575b600080fd5b61009561017a565b6040516100a29190610b88565b60405180910390f35b6100b36101a0565b6040516100c09190610bbc565b60405180910390f35b6100e360048036038101906100de9190610c08565b6101c9565b005b6100ed610426565b6040516100fa9190610b88565b60405180910390f35b61011d60048036038101906101189190610c08565b61044c565b005b61013960048036038101906101349190610c08565b610668565b005b61015560048036038101906101509190610c08565b6107f3565b005b61015f610a0e565b60405161017196959493929190610cc5565b60405180910390f35b600760009054906101000a900473ffffffffffffffffffffffffffffffffffffffff1681565b6000600760149054906101000a900460ff1660048111156101c4576101c3610d2d565b5b905090565b600660009054906101000a900473ffffffffffffffffffffffffffffffffffffffff1673ffffffffffffffffffffffffffffffffffffffff163373ffffffffffffffffffffffffffffffffffffffff1614610259576040517f08c379a000000000000000000000000000000000000000000000000000000000815260040161025090610dce565b60405180910390fd5b6001600481111561026d5761026c610d2d565b5b600481111561027f5761027e610d2d565b5b600760149054906101000a900460ff1660048111156102a1576102a0610d2d565b5b146102e1576040517f08c379a00000000000000000000000000000000000000000000000000000000081526004016102d890610e3a565b60405180910390fd5b600260048111156102f5576102f4610d2d565b5b600760146101000a81548160ff0219169083600481111561031957610318610d2d565b5b021790555080600760006101000a81548173ffffffffffffffffffffffffffffffffffffffff021916908373ffffffffffffffffffffffffffffffffffffffff160217905550600760009054906101000a900473ffffffffffffffffffffffffffffffffffffffff1673ffffffffffffffffffffffffffffffffffffffff16600460009054906101000a900473ffffffffffffffffffffffffffffffffffffffff1673ffffffffffffffffffffffffffffffffffffffff163073ffffffffffffffffffffffffffffffffffffffff167f7e89c4b1a4e2b51aae84eb1f90e8a34cb792ece5ac5cb63db4830c891220b28d6001600260405161041b929190610eda565b60405180910390a450565b600660009054906101000a900473ffffffffffffffffffffffffffffffffffffffff1681565b600460009054906101000a900473ffffffffffffffffffffffffffffffffffffffff1673ffffffffffffffffffffffffffffffffffffffff168173ffffffffffffffffffffffffffffffffffffffff16146104dc576040517f08c379a00000000000000000000000000000000000000000000000000000000081526004016104d390610f75565b60405180910390fd5b600260048111156104f0576104ef610d2d565b5b600481111561050257610501610d2d565b5b600760149054906101000a900460ff16600481111561052457610523610d2d565b5b14610564576040517f08c379a000000000000000000000000000000000000000000000000000000000815260040161055b90610fe1565b60405180910390fd5b6003600481111561057857610577610d2d565b5b600760146101000a81548160ff0219169083600481111561059c5761059b610d2d565b5b0217905550600760009054906101000a900473ffffffffffffffffffffffffffffffffffffffff1673ffffffffffffffffffffffffffffffffffffffff16600460009054906101000a900473ffffffffffffffffffffffffffffffffffffffff1673ffffffffffffffffffffffffffffffffffffffff163073ffffffffffffffffffffffffffffffffffffffff167f7e89c4b1a4e2b51aae84eb1f90e8a34cb792ece5ac5cb63db4830c891220b28d6001600360405161065d92919061103c565b60405180910390a450565b6003600481111561067c5761067b610d2d565b5b600481111561068e5761068d610d2d565b5b600760149054906101000a900460ff1660048111156106b0576106af610d2d565b5b146106f0576040517f08c379a00000000000000000000000000000000000000000000000000000000081526004016106e7906110b1565b60405180910390fd5b60048081111561070357610702610d2d565b5b600760146101000a81548160ff0219169083600481111561072757610726610d2d565b5b0217905550600760009054906101000a900473ffffffffffffffffffffffffffffffffffffffff1673ffffffffffffffffffffffffffffffffffffffff16600460009054906101000a900473ffffffffffffffffffffffffffffffffffffffff1673ffffffffffffffffffffffffffffffffffffffff163073ffffffffffffffffffffffffffffffffffffffff167f7e89c4b1a4e2b51aae84eb1f90e8a34cb792ece5ac5cb63db4830c891220b28d600160046040516107e892919061110c565b60405180910390a450565b600460009054906101000a900473ffffffffffffffffffffffffffffffffffffffff1673ffffffffffffffffffffffffffffffffffffffff168173ffffffffffffffffffffffffffffffffffffffff1614610883576040517f08c379a000000000000000000000000000000000000000000000000000000000815260040161087a90610f75565b60405180910390fd5b6000600481111561089757610896610d2d565b5b60048111156108a9576108a8610d2d565b5b600760149054906101000a900460ff1660048111156108cb576108ca610d2d565b5b1461090b576040517f08c379a0000000000000000000000000000000000000000000000000000000008152600401610902906111a7565b60405180910390fd5b6001600481111561091f5761091e610d2d565b5b600760146101000a81548160ff0219169083600481111561094357610942610d2d565b5b0217905550600660009054906101000a900473ffffffffffffffffffffffffffffffffffffffff1673ffffffffffffffffffffffffffffffffffffffff16600460009054906101000a900473ffffffffffffffffffffffffffffffffffffffff1673ffffffffffffffffffffffffffffffffffffffff163073ffffffffffffffffffffffffffffffffffffffff167f7e89c4b1a4e2b51aae84eb1f90e8a34cb792ece5ac5cb63db4830c891220b28d600180604051610a039291906111c7565b60405180910390a450565b6000606060008060008060008054906101000a900473ffffffffffffffffffffffffffffffffffffffff166001600260009054906101000a900473ffffffffffffffffffffffffffffffffffffffff16600354600460009054906101000a900473ffffffffffffffffffffffffffffffffffffffff16600660009054906101000a900473ffffffffffffffffffffffffffffffffffffffff16848054610ab39061121f565b80601f0160208091040260200160405190810160405280929190818152602001828054610adf9061121f565b8015610b2c5780601f10610b0157610100808354040283529160200191610b2c565b820191906000526020600020905b815481529060010190602001808311610b0f57829003601f168201915b50505050509450955095509550955095509550909192939495565b600073ffffffffffffffffffffffffffffffffffffffff82169050919050565b6000610b7282610b47565b9050919050565b610b8281610b67565b82525050565b6000602082019050610b9d6000830184610b79565b92915050565b6000819050919050565b610bb681610ba3565b82525050565b6000602082019050610bd16000830184610bad565b92915050565b600080fd5b610be581610b67565b8114610bf057600080fd5b50565b600081359050610c0281610bdc565b92915050565b600060208284031215610c1e57610c1d610bd7565b5b6000610c2c84828501610bf3565b91505092915050565b600081519050919050565b600082825260208201905092915050565b60005b83811015610c6f578082015181840152602081019050610c54565b60008484015250505050565b6000601f19601f8301169050919050565b6000610c9782610c35565b610ca18185610c40565b9350610cb1818560208601610c51565b610cba81610c7b565b840191505092915050565b600060c082019050610cda6000830189610b79565b8181036020830152610cec8188610c8c565b9050610cfb6040830187610b79565b610d086060830186610bad565b610d156080830185610b79565b610d2260a0830184610b79565b979650505050505050565b7f4e487b7100000000000000000000000000000000000000000000000000000000600052602160045260246000fd5b7f6f6e6c79206469737472696275746f722063616e20726563656976652074686560008201527f207061636b616765000000000000000000000000000000000000000000000000602082015250565b6000610db8602883610c40565b9150610dc382610d5c565b604082019050919050565b60006020820190508181036000830152610de781610dab565b9050919050565b7f746865207061636b616765206973206e6f742077697468207368697065720000600082015250565b6000610e24601e83610c40565b9150610e2f82610dee565b602082019050919050565b60006020820190508181036000830152610e5381610e17565b9050919050565b6000819050919050565b6000819050919050565b6000610e89610e84610e7f84610e5a565b610e64565b610ba3565b9050919050565b610e9981610e6e565b82525050565b6000819050919050565b6000610ec4610ebf610eba84610e9f565b610e64565b610ba3565b9050919050565b610ed481610ea9565b82525050565b6000604082019050610eef6000830185610e90565b610efc6020830184610ecb565b9392505050565b7f546865207061636b6167652063616e206f6e6c79206265207069636b6564206260008201527f7920746865207368697070657221000000000000000000000000000000000000602082015250565b6000610f5f602e83610c40565b9150610f6a82610f03565b604082019050919050565b60006020820190508181036000830152610f8e81610f52565b9050919050565b7f746865207061636b616765206c65667420746865206469737472696275746f72600082015250565b6000610fcb602083610c40565b9150610fd682610f95565b602082019050919050565b60006020820190508181036000830152610ffa81610fbe565b9050919050565b6000819050919050565b600061102661102161101c84611001565b610e64565b610ba3565b9050919050565b6110368161100b565b82525050565b60006040820190506110516000830185610e90565b61105e602083018461102d565b9392505050565b7f746865207061636b616765206c65667420746865207368697070657200000000600082015250565b600061109b601c83610c40565b91506110a682611065565b602082019050919050565b600060208201905081810360008301526110ca8161108e565b9050919050565b6000819050919050565b60006110f66110f16110ec846110d1565b610e64565b610ba3565b9050919050565b611106816110db565b82525050565b60006040820190506111216000830185610e90565b61112e60208301846110fd565b9392505050565b7f746865207061636b616765206c65667420746865206d616e756661637475726560008201527f7200000000000000000000000000000000000000000000000000000000000000602082015250565b6000611191602183610c40565b915061119c82611135565b604082019050919050565b600060208201905081810360008301526111c081611184565b9050919050565b60006040820190506111dc6000830185610e90565b6111e96020830184610e90565b9392505050565b7f4e487b7100000000000000000000000000000000000000000000000000000000600052602260045260246000fd5b6000600282049050600182168061123757607f821691505b60208210810361124a576112496111f0565b5b5091905056fea26469706673582212207acb74cceff4052664cb60ba6ab4c0bdff766d0a871cb1a3dceb838aab0ce36964736f6c63430008110033608060405234801561001057600080fd5b506040516108a03803806108a0833981810160405281019061003291906101e2565b826000806101000a81548173ffffffffffffffffffffffffffffffffffffffff021916908373ffffffffffffffffffffffffffffffffffffffff16021790555083600160006101000a81548173ffffffffffffffffffffffffffffffffffffffff021916908373ffffffffffffffffffffffffffffffffffffffff16021790555082600260006101000a81548173ffffffffffffffffffffffffffffffffffffffff021916908373ffffffffffffffffffffffffffffffffffffffff16021790555081600360006101000a81548173ffffffffffffffffffffffffffffffffffffffff021916908373ffffffffffffffffffffffffffffffffffffffff16021790555080600460006101000a81548173ffffffffffffffffffffffffffffffffffffffff021916908373ffffffffffffffffffffffffffffffffffffffff16021790555050505050610249565b600080fd5b600073ffffffffffffffffffffffffffffffffffffffff82169050919050565b60006101af82610184565b9050919050565b6101bf816101a4565b81146101ca57600080fd5b50565b6000815190506101dc816101b6565b92915050565b600080600080608085870312156101fc576101fb61017f565b5b600061020a878288016101cd565b945050602061021b878288016101cd565b935050604061022c878288016101cd565b925050606061023d878288016101cd565b91505092959194509250565b610648806102586000396000f3fe608060405234801561001057600080fd5b506004361061004c5760003560e01c8063190d65de146100515780634972134a1461006d578063b4779a3c1461008b578063e2785eee146100a7575b600080fd5b61006b60048036038101906100669190610410565b6100c5565b005b610075610201565b604051610082919061045f565b60405180910390f35b6100a560048036038101906100a09190610410565b610227565b005b6100af610384565b6040516100bc9190610493565b60405180910390f35b600360009054906101000a900473ffffffffffffffffffffffffffffffffffffffff1673ffffffffffffffffffffffffffffffffffffffff168173ffffffffffffffffffffffffffffffffffffffff1614610155576040517f08c379a000000000000000000000000000000000000000000000000000000000815260040161014c90610531565b60405180910390fd5b6001600281111561016957610168610551565b5b600460146101000a81548160ff0219169083600281111561018d5761018c610551565b5b02179055508173ffffffffffffffffffffffffffffffffffffffff1663ef488803826040518263ffffffff1660e01b81526004016101cb919061045f565b600060405180830381600087803b1580156101e557600080fd5b505af11580156101f9573d6000803e3d6000fd5b505050505050565b600160009054906101000a900473ffffffffffffffffffffffffffffffffffffffff1681565b8073ffffffffffffffffffffffffffffffffffffffff16600460009054906101000a900473ffffffffffffffffffffffffffffffffffffffff1673ffffffffffffffffffffffffffffffffffffffff16146102b7576040517f08c379a00000000000000000000000000000000000000000000000000000000081526004016102ae906105f2565b60405180910390fd5b6002808111156102ca576102c9610551565b5b600460146101000a81548160ff021916908360028111156102ee576102ed610551565b5b02179055508173ffffffffffffffffffffffffffffffffffffffff1663f64cd21e600460009054906101000a900473ffffffffffffffffffffffffffffffffffffffff166040518263ffffffff1660e01b815260040161034e919061045f565b600060405180830381600087803b15801561036857600080fd5b505af115801561037c573d6000803e3d6000fd5b505050505050565b6000600460149054906101000a900460ff1660028111156103a8576103a7610551565b5b905090565b600080fd5b600073ffffffffffffffffffffffffffffffffffffffff82169050919050565b60006103dd826103b2565b9050919050565b6103ed816103d2565b81146103f857600080fd5b50565b60008135905061040a816103e4565b92915050565b60008060408385031215610427576104266103ad565b5b6000610435858286016103fb565b9250506020610446858286016103fb565b9150509250929050565b610459816103d2565b82525050565b60006020820190506104746000830184610450565b92915050565b6000819050919050565b61048d8161047a565b82525050565b60006020820190506104a86000830184610484565b92915050565b600082825260208201905092915050565b7f4f6e6c79205368697070657220697320616c6c6f77656420746f20706963682060008201527f7061636b61676500000000000000000000000000000000000000000000000000602082015250565b600061051b6027836104ae565b9150610526826104bf565b604082019050919050565b6000602082019050818103600083015261054a8161050e565b9050919050565b7f4e487b7100000000000000000000000000000000000000000000000000000000600052602160045260246000fd5b7f4f6e6c7920726563656976657220697320616c6c6f77656420746f207265636560008201527f6976650000000000000000000000000000000000000000000000000000000000602082015250565b60006105dc6023836104ae565b91506105e782610580565b604082019050919050565b6000602082019050818103600083015261060b816105cf565b905091905056fea26469706673582212200c9b025ad0956a1ace4a387f9d2f1371415fab1508ed6fab0897e14cd21866da64736f6c63430008110033a2646970667358221220070d748926ef5a264f5d0cb289d5ff774de39d5d0ff46da2196acc0fa0a0623d64736f6c63430008110033",
  "immutableReferences": {},
  "source": "pragma solidity ^0.8.17;\n\nimport './Admin.sol';\nimport './Medicine.sol';\nimport './Distributor.sol';\nimport './RawMaterial.sol';\n\n\ncontract MedCycle{\n\n      enum roles{\n        norole,\n        supplier,\n        transporter,\n        manufacturer,\n        distributor,\n        retailer,\n        revoke\n    }\n\n    address admin;\n\n    constructor(address _admin) public {\n         admin=_admin;\n    }\n\n    /*****************************************************Manufacturer Section**************************************************/\n\n    mapping(address=>address[]) RawPackagesAtManufacturer;\n    mapping(address=>string) Hash;\n    mapping(address=>address[]) ManufacturedMedicine;\n\n     event MedicineNewBatch(\n        address indexed BatchId,\n        address indexed Manufacturer,\n        address shipper,\n        address indexed Receiver\n    );\n\n    function rawPackageReceived(address rawmaterialAddress) public {\n        require(roles(Admin(admin).getRole(msg.sender))==roles.manufacturer,\"Ony manufacturer can receive the packages\");\n        RawMaterial(rawmaterialAddress).receivePackage(msg.sender);\n        RawPackagesAtManufacturer[msg.sender].push(rawmaterialAddress);\n    }\n\n    function getPackagesCountManufacturer(address _manufacturer) public view returns(uint){\n        require(roles(Admin(admin).getRole(_manufacturer))==roles.manufacturer,\"Only Manufacturer is allowed to call this\");\n        return RawPackagesAtManufacturer[_manufacturer].length;\n    }\n\n    function getPackageIdByIndexManufacturer(uint index,address _manufacturer) public view returns(address){\n        require(roles(Admin(admin).getRole(_manufacturer))==roles.manufacturer,\"Only Manufacturer is allowed to call this\");\n        return RawPackagesAtManufacturer[_manufacturer][index];\n    } \n\n    function manufactureMedicine(\n        string memory _description,\n        address _rawmaterial,\n        uint _quantity,\n        address _shipper,\n        address _distributor\n        ) public {\n        require(roles(Admin(admin).getRole(msg.sender))==roles.manufacturer,\"Only Manufacturer is allowed to call this\");\n           Medicine newMedicine=new Medicine(\n                msg.sender,\n                 _description,\n                _rawmaterial,\n                _quantity,\n                _shipper,\n                 _distributor\n           ); \n           ManufacturedMedicine[msg.sender].push(address(newMedicine));\n           emit MedicineNewBatch(address(newMedicine), msg.sender, _shipper, _distributor);\n        }\n\n    function getManufacturedMedicineCountManufacturer(address _manufacturer) public view returns(uint){\n            require(roles(Admin(admin).getRole(_manufacturer))==roles.manufacturer,\"Only Manufacturer is allowed to call this\");\n            return ManufacturedMedicine[_manufacturer].length;\n    }\n\n    function getManufacturedMedicineIdByIndexManufacturer(uint index,address _manufacturer) public view returns(address){\n            require(roles(Admin(admin).getRole(_manufacturer))==roles.manufacturer,\"Only Manufacturer is allowed to call this\");\n            return ManufacturedMedicine[_manufacturer][index];\n    }\n\n    function setHash(string memory _hash) public {\n            Hash[msg.sender]=_hash;\n    }\n\n    function getHash() public view returns(string memory){\n            return Hash[msg.sender];\n    }\n\n    /***********************************************************Distributor Section********************************************************/\n\n    mapping(address => address[]) MedicineDistributorToRtailer;\n    mapping(address => address) MedicineDistributorToRtailerxContract;\n\n    function transferMedicineDistributorToRetailer(\n        address _batchId,\n        address _shipper,\n        address _retailer\n    ) public {\n            require(roles(Admin(admin).getRole(msg.sender))==roles.distributor &&\n             msg.sender == Medicine(_batchId).distributor(),\n            \"Only Distributor is allowed to call this\"\n            );\n\n            Distributor newPackage=new Distributor(\n                _batchId,\n                msg.sender,\n                _shipper,\n                _retailer\n            );\n\n            MedicineDistributorToRtailer[msg.sender].push(address(newPackage));\n            MedicineDistributorToRtailerxContract[_batchId]=address(newPackage);\n    }\n\n    function getBatchesCountDistributorToRetailer(address _distributor) public view returns(uint){\n         require(roles(Admin(admin).getRole(_distributor))==roles.distributor,\n            \"Only Distributor is allowed to call this\"\n            );\n        return MedicineDistributorToRtailer[_distributor].length;\n    }\n\n     function getBatchesIdByIndexDistributorToRetailer(uint index,address _distributor) public view returns(address){\n          require(roles(Admin(admin).getRole(_distributor))==roles.distributor,\n            \"Only Distributor is allowed to call this\"\n            );\n        return MedicineDistributorToRtailer[_distributor][index];\n     }\n\n     function getSubContractDistributorToRetailer(address _batchId) public view returns(address){\n         return MedicineDistributorToRtailerxContract[_batchId];\n     }\n\n    /***********************************************************Retailer Section***********************************************/\n\n     mapping(address=>address[]) MedicineBatchRetailer;\n\n     enum salestatus {\n        notfound,\n        atretailer,\n        sold,\n        expire,\n        damaged\n    }\n\n     mapping(address=>salestatus) sale;\n\n     event MedicineStatus(\n        address BatchID,\n        address indexed Retailer,\n        uint status\n    );\n\n    function medicineReceivedAtRetailer(address _batchId,address _distributorAddress) public{\n        // require(roles(Admin(admin).getRole(msg.sender))==roles.retailer,\"Ony retailer can access this function\");\n        // Distributor(_distributorAddress).receivePackageRetailer(_batchId, msg.sender);\n        Medicine(_batchId).receivePackageRetailer(msg.sender);\n        MedicineBatchRetailer[msg.sender].push(_batchId);\n        sale[_batchId]=salestatus(1);\n    } \n\n    function updateSaleStatus(\n        address _batchId,\n        uint _status\n    ) public {\n        require(roles(Admin(admin).getRole(msg.sender))==roles.retailer,\"Ony retailer can update status!\");\n        require(sale[_batchId]==salestatus.atretailer,\"Medicine is not at retailer\");\n        sale[_batchId]=salestatus(_status);\n        emit MedicineStatus(_batchId, msg.sender, _status);\n    }\n\n    function salesInfo(address _batchId) public view returns(uint){\n        return uint(sale[_batchId]);\n    }\n\n    function getBatchesCountRetailer(address _retailer) public view returns(uint){\n        require(roles(Admin(admin).getRole(_retailer))==roles.retailer,\"Ony retailer can call this function!\");\n        return MedicineBatchRetailer[_retailer].length;\n    }\n\n    function getBatchedIdByIndexRetailer(uint index,address _retailer) public view returns(address){\n        require(roles(Admin(admin).getRole(_retailer))==roles.retailer,\"Ony retailer can call this function!\");\n        return MedicineBatchRetailer[_retailer][index];\n    }\n\n}\n\n\n\n\n",
  "sourcePath": "C:\\Users\\Farhan\\.vscode\\SupplyChain\\contracts\\MedCycle.sol",
  "compiler": {
    "name": "solc",
    "version": "0.8.17+commit.8df45f5f.Emscripten.clang"
  },
  "schemaVersion": "3.4.11",
  "updatedAt": "2023-04-05T20:17:45.468Z",
  "devdoc": {
    "kind": "dev",
    "methods": {},
    "version": 1
  },
  "userdoc": {
    "kind": "user",
    "methods": {},
    "version": 1
  }
}