{
  "contractName": "Medicine",
  "abi": [
    {
      "inputs": [
        {
          "internalType": "address",
          "name": "_manufacturer",
          "type": "address"
        },
        {
          "internalType": "string",
          "name": "_description",
          "type": "string"
        },
        {
          "internalType": "address",
          "name": "_rawmaterial",
          "type": "address"
        },
        {
          "internalType": "uint256",
          "name": "_quantity",
          "type": "uint256"
        },
        {
          "internalType": "address",
          "name": "_shipper",
          "type": "address"
        },
        {
          "internalType": "address",
          "name": "_distributor",
          "type": "address"
        }
      ],
      "stateMutability": "nonpayable",
      "type": "constructor"
    },
    {
      "anonymous": false,
      "inputs": [
        {
          "indexed": true,
          "internalType": "address",
          "name": "BatchId",
          "type": "address"
        },
        {
          "indexed": true,
          "internalType": "address",
          "name": "Shipper",
          "type": "address"
        },
        {
          "indexed": true,
          "internalType": "address",
          "name": "Receiver",
          "type": "address"
        },
        {
          "indexed": false,
          "internalType": "uint256",
          "name": "TransporterType",
          "type": "uint256"
        },
        {
          "indexed": false,
          "internalType": "uint256",
          "name": "Status",
          "type": "uint256"
        }
      ],
      "name": "ShippmentUpdate",
      "type": "event"
    },
    {
      "inputs": [],
      "name": "distributor",
      "outputs": [
        {
          "internalType": "address",
          "name": "",
          "type": "address"
        }
      ],
      "stateMutability": "view",
      "type": "function"
    },
    {
      "inputs": [],
      "name": "retailer",
      "outputs": [
        {
          "internalType": "address",
          "name": "",
          "type": "address"
        }
      ],
      "stateMutability": "view",
      "type": "function"
    },
    {
      "inputs": [],
      "name": "getMediceInfo",
      "outputs": [
        {
          "internalType": "address",
          "name": "",
          "type": "address"
        },
        {
          "internalType": "string",
          "name": "",
          "type": "string"
        },
        {
          "internalType": "address",
          "name": "",
          "type": "address"
        },
        {
          "internalType": "uint256",
          "name": "",
          "type": "uint256"
        },
        {
          "internalType": "address",
          "name": "",
          "type": "address"
        },
        {
          "internalType": "address",
          "name": "",
          "type": "address"
        }
      ],
      "stateMutability": "view",
      "type": "function"
    },
    {
      "inputs": [],
      "name": "getMedicineStatus",
      "outputs": [
        {
          "internalType": "uint256",
          "name": "",
          "type": "uint256"
        }
      ],
      "stateMutability": "view",
      "type": "function"
    },
    {
      "inputs": [
        {
          "internalType": "address",
          "name": "_shipper",
          "type": "address"
        }
      ],
      "name": "pickPackageDistributor",
      "outputs": [],
      "stateMutability": "nonpayable",
      "type": "function"
    },
    {
      "inputs": [
        {
          "internalType": "address",
          "name": "_retailer",
          "type": "address"
        }
      ],
      "name": "receivePackageDistributor",
      "outputs": [],
      "stateMutability": "nonpayable",
      "type": "function"
    },
    {
      "inputs": [
        {
          "internalType": "address",
          "name": "_shipper",
          "type": "address"
        }
      ],
      "name": "pickPackageRetailer",
      "outputs": [],
      "stateMutability": "nonpayable",
      "type": "function"
    },
    {
      "inputs": [
        {
          "internalType": "address",
          "name": "_retailer",
          "type": "address"
        }
      ],
      "name": "receivePackageRetailer",
      "outputs": [],
      "stateMutability": "nonpayable",
      "type": "function"
    }
  ],
  "bytecode": "0x60806040523480156200001157600080fd5b5060405162001a4c38038062001a4c8339818101604052810190620000379190620003d3565b856000806101000a81548173ffffffffffffffffffffffffffffffffffffffff021916908373ffffffffffffffffffffffffffffffffffffffff16021790555085600560006101000a81548173ffffffffffffffffffffffffffffffffffffffff021916908373ffffffffffffffffffffffffffffffffffffffff1602179055508460019081620000c99190620006cf565b5083600260006101000a81548173ffffffffffffffffffffffffffffffffffffffff021916908373ffffffffffffffffffffffffffffffffffffffff1602179055508260038190555081600460006101000a81548173ffffffffffffffffffffffffffffffffffffffff021916908373ffffffffffffffffffffffffffffffffffffffff16021790555080600660006101000a81548173ffffffffffffffffffffffffffffffffffffffff021916908373ffffffffffffffffffffffffffffffffffffffff160217905550505050505050620007b6565b6000604051905090565b600080fd5b600080fd5b600073ffffffffffffffffffffffffffffffffffffffff82169050919050565b6000620001e182620001b4565b9050919050565b620001f381620001d4565b8114620001ff57600080fd5b50565b6000815190506200021381620001e8565b92915050565b600080fd5b600080fd5b6000601f19601f8301169050919050565b7f4e487b7100000000000000000000000000000000000000000000000000000000600052604160045260246000fd5b6200026e8262000223565b810181811067ffffffffffffffff8211171562000290576200028f62000234565b5b80604052505050565b6000620002a5620001a0565b9050620002b3828262000263565b919050565b600067ffffffffffffffff821115620002d657620002d562000234565b5b620002e18262000223565b9050602081019050919050565b60005b838110156200030e578082015181840152602081019050620002f1565b60008484015250505050565b6000620003316200032b84620002b8565b62000299565b90508281526020810184848401111562000350576200034f6200021e565b5b6200035d848285620002ee565b509392505050565b600082601f8301126200037d576200037c62000219565b5b81516200038f8482602086016200031a565b91505092915050565b6000819050919050565b620003ad8162000398565b8114620003b957600080fd5b50565b600081519050620003cd81620003a2565b92915050565b60008060008060008060c08789031215620003f357620003f2620001aa565b5b60006200040389828a0162000202565b965050602087015167ffffffffffffffff811115620004275762000426620001af565b5b6200043589828a0162000365565b95505060406200044889828a0162000202565b94505060606200045b89828a01620003bc565b93505060806200046e89828a0162000202565b92505060a06200048189828a0162000202565b9150509295509295509295565b600081519050919050565b7f4e487b7100000000000000000000000000000000000000000000000000000000600052602260045260246000fd5b60006002820490506001821680620004e157607f821691505b602082108103620004f757620004f662000499565b5b50919050565b60008190508160005260206000209050919050565b60006020601f8301049050919050565b600082821b905092915050565b600060088302620005617fffffffffffffffffffffffffffffffffffffffffffffffffffffffffffffffff8262000522565b6200056d868362000522565b95508019841693508086168417925050509392505050565b6000819050919050565b6000620005b0620005aa620005a48462000398565b62000585565b62000398565b9050919050565b6000819050919050565b620005cc836200058f565b620005e4620005db82620005b7565b8484546200052f565b825550505050565b600090565b620005fb620005ec565b62000608818484620005c1565b505050565b5b81811015620006305762000624600082620005f1565b6001810190506200060e565b5050565b601f8211156200067f576200064981620004fd565b620006548462000512565b8101602085101562000664578190505b6200067c620006738562000512565b8301826200060d565b50505b505050565b600082821c905092915050565b6000620006a46000198460080262000684565b1980831691505092915050565b6000620006bf838362000691565b9150826002028217905092915050565b620006da826200048e565b67ffffffffffffffff811115620006f657620006f562000234565b5b620007028254620004c8565b6200070f82828562000634565b600060209050601f83116001811462000747576000841562000732578287015190505b6200073e8582620006b1565b865550620007ae565b601f1984166200075786620004fd565b60005b8281101562000781578489015182556001820191506020850194506020810190506200075a565b86831015620007a157848901516200079d601f89168262000691565b8355505b6001600288020188555050505b505050505050565b61128680620007c66000396000f3fe608060405234801561001057600080fd5b50600436106100885760003560e01c8063ef4888031161005b578063ef48880314610103578063f64cd21e1461011f578063f74fdde11461013b578063fc7923311461015757610088565b80634c1249fc1461008d57806373b037db146100ab5780637b1df25c146100c9578063bfe10928146100e5575b600080fd5b61009561017a565b6040516100a29190610b88565b60405180910390f35b6100b36101a0565b6040516100c09190610bbc565b60405180910390f35b6100e360048036038101906100de9190610c08565b6101c9565b005b6100ed610426565b6040516100fa9190610b88565b60405180910390f35b61011d60048036038101906101189190610c08565b61044c565b005b61013960048036038101906101349190610c08565b610668565b005b61015560048036038101906101509190610c08565b6107f3565b005b61015f610a0e565b60405161017196959493929190610cc5565b60405180910390f35b600760009054906101000a900473ffffffffffffffffffffffffffffffffffffffff1681565b6000600760149054906101000a900460ff1660048111156101c4576101c3610d2d565b5b905090565b600660009054906101000a900473ffffffffffffffffffffffffffffffffffffffff1673ffffffffffffffffffffffffffffffffffffffff163373ffffffffffffffffffffffffffffffffffffffff1614610259576040517f08c379a000000000000000000000000000000000000000000000000000000000815260040161025090610dce565b60405180910390fd5b6001600481111561026d5761026c610d2d565b5b600481111561027f5761027e610d2d565b5b600760149054906101000a900460ff1660048111156102a1576102a0610d2d565b5b146102e1576040517f08c379a00000000000000000000000000000000000000000000000000000000081526004016102d890610e3a565b60405180910390fd5b600260048111156102f5576102f4610d2d565b5b600760146101000a81548160ff0219169083600481111561031957610318610d2d565b5b021790555080600760006101000a81548173ffffffffffffffffffffffffffffffffffffffff021916908373ffffffffffffffffffffffffffffffffffffffff160217905550600760009054906101000a900473ffffffffffffffffffffffffffffffffffffffff1673ffffffffffffffffffffffffffffffffffffffff16600460009054906101000a900473ffffffffffffffffffffffffffffffffffffffff1673ffffffffffffffffffffffffffffffffffffffff163073ffffffffffffffffffffffffffffffffffffffff167f7e89c4b1a4e2b51aae84eb1f90e8a34cb792ece5ac5cb63db4830c891220b28d6001600260405161041b929190610eda565b60405180910390a450565b600660009054906101000a900473ffffffffffffffffffffffffffffffffffffffff1681565b600460009054906101000a900473ffffffffffffffffffffffffffffffffffffffff1673ffffffffffffffffffffffffffffffffffffffff168173ffffffffffffffffffffffffffffffffffffffff16146104dc576040517f08c379a00000000000000000000000000000000000000000000000000000000081526004016104d390610f75565b60405180910390fd5b600260048111156104f0576104ef610d2d565b5b600481111561050257610501610d2d565b5b600760149054906101000a900460ff16600481111561052457610523610d2d565b5b14610564576040517f08c379a000000000000000000000000000000000000000000000000000000000815260040161055b90610fe1565b60405180910390fd5b6003600481111561057857610577610d2d565b5b600760146101000a81548160ff0219169083600481111561059c5761059b610d2d565b5b0217905550600760009054906101000a900473ffffffffffffffffffffffffffffffffffffffff1673ffffffffffffffffffffffffffffffffffffffff16600460009054906101000a900473ffffffffffffffffffffffffffffffffffffffff1673ffffffffffffffffffffffffffffffffffffffff163073ffffffffffffffffffffffffffffffffffffffff167f7e89c4b1a4e2b51aae84eb1f90e8a34cb792ece5ac5cb63db4830c891220b28d6001600360405161065d92919061103c565b60405180910390a450565b6003600481111561067c5761067b610d2d565b5b600481111561068e5761068d610d2d565b5b600760149054906101000a900460ff1660048111156106b0576106af610d2d565b5b146106f0576040517f08c379a00000000000000000000000000000000000000000000000000000000081526004016106e7906110b1565b60405180910390fd5b60048081111561070357610702610d2d565b5b600760146101000a81548160ff0219169083600481111561072757610726610d2d565b5b0217905550600760009054906101000a900473ffffffffffffffffffffffffffffffffffffffff1673ffffffffffffffffffffffffffffffffffffffff16600460009054906101000a900473ffffffffffffffffffffffffffffffffffffffff1673ffffffffffffffffffffffffffffffffffffffff163073ffffffffffffffffffffffffffffffffffffffff167f7e89c4b1a4e2b51aae84eb1f90e8a34cb792ece5ac5cb63db4830c891220b28d600160046040516107e892919061110c565b60405180910390a450565b600460009054906101000a900473ffffffffffffffffffffffffffffffffffffffff1673ffffffffffffffffffffffffffffffffffffffff168173ffffffffffffffffffffffffffffffffffffffff1614610883576040517f08c379a000000000000000000000000000000000000000000000000000000000815260040161087a90610f75565b60405180910390fd5b6000600481111561089757610896610d2d565b5b60048111156108a9576108a8610d2d565b5b600760149054906101000a900460ff1660048111156108cb576108ca610d2d565b5b1461090b576040517f08c379a0000000000000000000000000000000000000000000000000000000008152600401610902906111a7565b60405180910390fd5b6001600481111561091f5761091e610d2d565b5b600760146101000a81548160ff0219169083600481111561094357610942610d2d565b5b0217905550600660009054906101000a900473ffffffffffffffffffffffffffffffffffffffff1673ffffffffffffffffffffffffffffffffffffffff16600460009054906101000a900473ffffffffffffffffffffffffffffffffffffffff1673ffffffffffffffffffffffffffffffffffffffff163073ffffffffffffffffffffffffffffffffffffffff167f7e89c4b1a4e2b51aae84eb1f90e8a34cb792ece5ac5cb63db4830c891220b28d600180604051610a039291906111c7565b60405180910390a450565b6000606060008060008060008054906101000a900473ffffffffffffffffffffffffffffffffffffffff166001600260009054906101000a900473ffffffffffffffffffffffffffffffffffffffff16600354600460009054906101000a900473ffffffffffffffffffffffffffffffffffffffff16600660009054906101000a900473ffffffffffffffffffffffffffffffffffffffff16848054610ab39061121f565b80601f0160208091040260200160405190810160405280929190818152602001828054610adf9061121f565b8015610b2c5780601f10610b0157610100808354040283529160200191610b2c565b820191906000526020600020905b815481529060010190602001808311610b0f57829003601f168201915b50505050509450955095509550955095509550909192939495565b600073ffffffffffffffffffffffffffffffffffffffff82169050919050565b6000610b7282610b47565b9050919050565b610b8281610b67565b82525050565b6000602082019050610b9d6000830184610b79565b92915050565b6000819050919050565b610bb681610ba3565b82525050565b6000602082019050610bd16000830184610bad565b92915050565b600080fd5b610be581610b67565b8114610bf057600080fd5b50565b600081359050610c0281610bdc565b92915050565b600060208284031215610c1e57610c1d610bd7565b5b6000610c2c84828501610bf3565b91505092915050565b600081519050919050565b600082825260208201905092915050565b60005b83811015610c6f578082015181840152602081019050610c54565b60008484015250505050565b6000601f19601f8301169050919050565b6000610c9782610c35565b610ca18185610c40565b9350610cb1818560208601610c51565b610cba81610c7b565b840191505092915050565b600060c082019050610cda6000830189610b79565b8181036020830152610cec8188610c8c565b9050610cfb6040830187610b79565b610d086060830186610bad565b610d156080830185610b79565b610d2260a0830184610b79565b979650505050505050565b7f4e487b7100000000000000000000000000000000000000000000000000000000600052602160045260246000fd5b7f6f6e6c79206469737472696275746f722063616e20726563656976652074686560008201527f207061636b616765000000000000000000000000000000000000000000000000602082015250565b6000610db8602883610c40565b9150610dc382610d5c565b604082019050919050565b60006020820190508181036000830152610de781610dab565b9050919050565b7f746865207061636b616765206973206e6f742077697468207368697065720000600082015250565b6000610e24601e83610c40565b9150610e2f82610dee565b602082019050919050565b60006020820190508181036000830152610e5381610e17565b9050919050565b6000819050919050565b6000819050919050565b6000610e89610e84610e7f84610e5a565b610e64565b610ba3565b9050919050565b610e9981610e6e565b82525050565b6000819050919050565b6000610ec4610ebf610eba84610e9f565b610e64565b610ba3565b9050919050565b610ed481610ea9565b82525050565b6000604082019050610eef6000830185610e90565b610efc6020830184610ecb565b9392505050565b7f546865207061636b6167652063616e206f6e6c79206265207069636b6564206260008201527f7920746865207368697070657221000000000000000000000000000000000000602082015250565b6000610f5f602e83610c40565b9150610f6a82610f03565b604082019050919050565b60006020820190508181036000830152610f8e81610f52565b9050919050565b7f746865207061636b616765206c65667420746865206469737472696275746f72600082015250565b6000610fcb602083610c40565b9150610fd682610f95565b602082019050919050565b60006020820190508181036000830152610ffa81610fbe565b9050919050565b6000819050919050565b600061102661102161101c84611001565b610e64565b610ba3565b9050919050565b6110368161100b565b82525050565b60006040820190506110516000830185610e90565b61105e602083018461102d565b9392505050565b7f746865207061636b616765206c65667420746865207368697070657200000000600082015250565b600061109b601c83610c40565b91506110a682611065565b602082019050919050565b600060208201905081810360008301526110ca8161108e565b9050919050565b6000819050919050565b60006110f66110f16110ec846110d1565b610e64565b610ba3565b9050919050565b611106816110db565b82525050565b60006040820190506111216000830185610e90565b61112e60208301846110fd565b9392505050565b7f746865207061636b616765206c65667420746865206d616e756661637475726560008201527f7200000000000000000000000000000000000000000000000000000000000000602082015250565b6000611191602183610c40565b915061119c82611135565b604082019050919050565b600060208201905081810360008301526111c081611184565b9050919050565b60006040820190506111dc6000830185610e90565b6111e96020830184610e90565b9392505050565b7f4e487b7100000000000000000000000000000000000000000000000000000000600052602260045260246000fd5b6000600282049050600182168061123757607f821691505b60208210810361124a576112496111f0565b5b5091905056fea26469706673582212207acb74cceff4052664cb60ba6ab4c0bdff766d0a871cb1a3dceb838aab0ce36964736f6c63430008110033",
  "immutableReferences": {},
  "source": "pragma solidity ^0.8.17;\n\n\n\ncontract Medicine{\naddress owner;\n\nenum medicinestatus{\n    atmanufacturer,\n    picked_for_distributor,\n    delivered_to_distributor,\n    picked_for_retailer,\n    delivered_to_retailer\n}\n\nstring description;\naddress rawmaterial;\nuint quantity;\naddress shipper;\naddress manufacturer;\naddress public distributor;\naddress public retailer;\nmedicinestatus status;\n\nevent ShippmentUpdate(\n    address indexed BatchId,\n    address indexed Shipper,\n    address indexed Receiver,\n    uint TransporterType,\n    uint Status\n);\n\nconstructor(\n    address _manufacturer,\n    string memory _description,\n    address _rawmaterial,\n    uint _quantity,\n    address _shipper,\n    address _distributor\n) public {\n    owner=_manufacturer;\n    manufacturer=_manufacturer;\n    description=_description;\n    rawmaterial=_rawmaterial;\n    quantity=_quantity;\n    shipper=_shipper;\n    distributor=_distributor;\n}\n\nfunction getMediceInfo() public view returns(address,string memory,address,uint ,address ,address ){\n    return (\n         owner,\n        description,\n        rawmaterial,\n        quantity,\n        shipper,\n        distributor\n    );\n}\n\nfunction getMedicineStatus() public view returns(uint){\n    return uint(status);\n}\n\nfunction pickPackageDistributor(address _shipper) public {\n    require(_shipper==shipper,\"The package can only be picked by the shipper!\");\n    require(status==medicinestatus(0),\"the package left the manufacturer\");\n    status=medicinestatus(1);\n    emit ShippmentUpdate(address(this), shipper, distributor, 1, 1);\n}\n\nfunction receivePackageDistributor(address _retailer) public {\n    require(msg.sender==distributor,\"only distributor can receive the package\");\n    require(status==medicinestatus(1),\"the package is not with shiper\");\n    status=medicinestatus(2);\n    retailer=_retailer;\n     emit ShippmentUpdate(address(this), shipper, retailer, 1, 2);\n}\n\nfunction pickPackageRetailer(address _shipper) public {\n    require(_shipper==shipper,\"The package can only be picked by the shipper!\");\n    require(status==medicinestatus(2),\"the package left the distributor\");\n    status=medicinestatus(3);\n    emit ShippmentUpdate(address(this), shipper, retailer, 1, 3);\n}\n\nfunction receivePackageRetailer(address _retailer) public {\n    // require(_retailer==retailer,\"only distributor can receive the package\");\n    require(status==medicinestatus(3),\"the package left the shipper\");\n    status=medicinestatus(4);\n     emit ShippmentUpdate(address(this), shipper, retailer, 1, 4);\n}\n\n}",
  "sourcePath": "C:\\Users\\Farhan\\.vscode\\SupplyChain\\contracts\\Medicine.sol",
  "compiler": {
    "name": "solc",
    "version": "0.8.17+commit.8df45f5f.Emscripten.clang"
  },
  "schemaVersion": "3.4.11",
  "updatedAt": "2023-04-05T20:15:34.002Z",
  "devdoc": {
    "kind": "dev",
    "methods": {},
    "version": 1
  },
  "userdoc": {
    "kind": "user",
    "methods": {},
    "version": 1
  }
}