{
  "contractName": "RawMaterial",
  "abi": [
    {
      "inputs": [
        {
          "internalType": "address",
          "name": "_supplier",
          "type": "address"
        },
        {
          "internalType": "string",
          "name": "_description",
          "type": "string"
        },
        {
          "internalType": "string",
          "name": "_ownerName",
          "type": "string"
        },
        {
          "internalType": "string",
          "name": "_location",
          "type": "string"
        },
        {
          "internalType": "uint256",
          "name": "_quantity",
          "type": "uint256"
        },
        {
          "internalType": "address",
          "name": "_shipper",
          "type": "address"
        },
        {
          "internalType": "address",
          "name": "_manufacturer",
          "type": "address"
        }
      ],
      "stateMutability": "nonpayable",
      "type": "constructor"
    },
    {
      "anonymous": false,
      "inputs": [
        {
          "indexed": true,
          "internalType": "address",
          "name": "BatchId",
          "type": "address"
        },
        {
          "indexed": true,
          "internalType": "address",
          "name": "Shipper",
          "type": "address"
        },
        {
          "indexed": true,
          "internalType": "address",
          "name": "Manufacturer",
          "type": "address"
        },
        {
          "indexed": false,
          "internalType": "uint256",
          "name": "TransporterTpye",
          "type": "uint256"
        },
        {
          "indexed": false,
          "internalType": "uint256",
          "name": "Status",
          "type": "uint256"
        }
      ],
      "name": "ShippmentUpdate",
      "type": "event"
    },
    {
      "inputs": [],
      "name": "getSuppliedRawMatrials",
      "outputs": [
        {
          "internalType": "string",
          "name": "",
          "type": "string"
        },
        {
          "internalType": "string",
          "name": "",
          "type": "string"
        },
        {
          "internalType": "string",
          "name": "",
          "type": "string"
        },
        {
          "internalType": "uint256",
          "name": "",
          "type": "uint256"
        },
        {
          "internalType": "address",
          "name": "",
          "type": "address"
        },
        {
          "internalType": "address",
          "name": "",
          "type": "address"
        },
        {
          "internalType": "address",
          "name": "",
          "type": "address"
        }
      ],
      "stateMutability": "view",
      "type": "function"
    },
    {
      "inputs": [],
      "name": "getRawMatrialsStatus",
      "outputs": [
        {
          "internalType": "uint256",
          "name": "",
          "type": "uint256"
        }
      ],
      "stateMutability": "view",
      "type": "function"
    },
    {
      "inputs": [
        {
          "internalType": "address",
          "name": "_shipper",
          "type": "address"
        }
      ],
      "name": "pickPackage",
      "outputs": [],
      "stateMutability": "nonpayable",
      "type": "function"
    },
    {
      "inputs": [
        {
          "internalType": "address",
          "name": "_manufacturer",
          "type": "address"
        }
      ],
      "name": "receivePackage",
      "outputs": [],
      "stateMutability": "nonpayable",
      "type": "function"
    }
  ],
  "bytecode": "0x60806040523480156200001157600080fd5b50604051620015b4380380620015b483398181016040528101906200003791906200043b565b866000806101000a81548173ffffffffffffffffffffffffffffffffffffffff021916908373ffffffffffffffffffffffffffffffffffffffff16021790555030600160006101000a81548173ffffffffffffffffffffffffffffffffffffffff021916908373ffffffffffffffffffffffffffffffffffffffff1602179055508560029081620000c991906200078c565b508460039081620000db91906200078c565b508360049081620000ed91906200078c565b508260058190555081600660006101000a81548173ffffffffffffffffffffffffffffffffffffffff021916908373ffffffffffffffffffffffffffffffffffffffff16021790555080600760006101000a81548173ffffffffffffffffffffffffffffffffffffffff021916908373ffffffffffffffffffffffffffffffffffffffff16021790555086600860006101000a81548173ffffffffffffffffffffffffffffffffffffffff021916908373ffffffffffffffffffffffffffffffffffffffff16021790555060006002811115620001cf57620001ce62000873565b5b600860146101000a81548160ff02191690836002811115620001f657620001f562000873565b5b021790555050505050505050620008a2565b6000604051905090565b600080fd5b600080fd5b600073ffffffffffffffffffffffffffffffffffffffff82169050919050565b600062000249826200021c565b9050919050565b6200025b816200023c565b81146200026757600080fd5b50565b6000815190506200027b8162000250565b92915050565b600080fd5b600080fd5b6000601f19601f8301169050919050565b7f4e487b7100000000000000000000000000000000000000000000000000000000600052604160045260246000fd5b620002d6826200028b565b810181811067ffffffffffffffff82111715620002f857620002f76200029c565b5b80604052505050565b60006200030d62000208565b90506200031b8282620002cb565b919050565b600067ffffffffffffffff8211156200033e576200033d6200029c565b5b62000349826200028b565b9050602081019050919050565b60005b838110156200037657808201518184015260208101905062000359565b60008484015250505050565b600062000399620003938462000320565b62000301565b905082815260208101848484011115620003b857620003b762000286565b5b620003c584828562000356565b509392505050565b600082601f830112620003e557620003e462000281565b5b8151620003f784826020860162000382565b91505092915050565b6000819050919050565b620004158162000400565b81146200042157600080fd5b50565b60008151905062000435816200040a565b92915050565b600080600080600080600060e0888a0312156200045d576200045c62000212565b5b60006200046d8a828b016200026a565b975050602088015167ffffffffffffffff81111562000491576200049062000217565b5b6200049f8a828b01620003cd565b965050604088015167ffffffffffffffff811115620004c357620004c262000217565b5b620004d18a828b01620003cd565b955050606088015167ffffffffffffffff811115620004f557620004f462000217565b5b620005038a828b01620003cd565b9450506080620005168a828b0162000424565b93505060a0620005298a828b016200026a565b92505060c06200053c8a828b016200026a565b91505092959891949750929550565b600081519050919050565b7f4e487b7100000000000000000000000000000000000000000000000000000000600052602260045260246000fd5b600060028204905060018216806200059e57607f821691505b602082108103620005b457620005b362000556565b5b50919050565b60008190508160005260206000209050919050565b60006020601f8301049050919050565b600082821b905092915050565b6000600883026200061e7fffffffffffffffffffffffffffffffffffffffffffffffffffffffffffffffff82620005df565b6200062a8683620005df565b95508019841693508086168417925050509392505050565b6000819050919050565b60006200066d62000667620006618462000400565b62000642565b62000400565b9050919050565b6000819050919050565b62000689836200064c565b620006a1620006988262000674565b848454620005ec565b825550505050565b600090565b620006b8620006a9565b620006c58184846200067e565b505050565b5b81811015620006ed57620006e1600082620006ae565b600181019050620006cb565b5050565b601f8211156200073c576200070681620005ba565b6200071184620005cf565b8101602085101562000721578190505b620007396200073085620005cf565b830182620006ca565b50505b505050565b600082821c905092915050565b6000620007616000198460080262000741565b1980831691505092915050565b60006200077c83836200074e565b9150826002028217905092915050565b62000797826200054b565b67ffffffffffffffff811115620007b357620007b26200029c565b5b620007bf825462000585565b620007cc828285620006f1565b600060209050601f831160018114620008045760008415620007ef578287015190505b620007fb85826200076e565b8655506200086b565b601f1984166200081486620005ba565b60005b828110156200083e5784890151825560018201915060208501945060208101905062000817565b868310156200085e57848901516200085a601f8916826200074e565b8355505b6001600288020188555050505b505050505050565b7f4e487b7100000000000000000000000000000000000000000000000000000000600052602160045260246000fd5b610d0280620008b26000396000f3fe608060405234801561001057600080fd5b506004361061004c5760003560e01c80631f29567a146100515780633b205a7d1461006d578063638e9a3d1461008b578063d02eee23146100a7575b600080fd5b61006b600480360381019061006691906107c5565b6100cb565b005b6100756102e6565b604051610082919061080b565b60405180910390f35b6100a560048036038101906100a091906107c5565b61030f565b005b6100af61052a565b6040516100c297969594939291906108c5565b60405180910390f35b600760009054906101000a900473ffffffffffffffffffffffffffffffffffffffff1673ffffffffffffffffffffffffffffffffffffffff168173ffffffffffffffffffffffffffffffffffffffff161461015b576040517f08c379a0000000000000000000000000000000000000000000000000000000008152600401610152906109bb565b60405180910390fd5b6001600281111561016f5761016e6109db565b5b6002811115610181576101806109db565b5b600860149054906101000a900460ff1660028111156101a3576101a26109db565b5b146101e3576040517f08c379a00000000000000000000000000000000000000000000000000000000081526004016101da90610a56565b60405180910390fd5b6002808111156101f6576101f56109db565b5b600860146101000a81548160ff0219169083600281111561021a576102196109db565b5b0217905550600760009054906101000a900473ffffffffffffffffffffffffffffffffffffffff1673ffffffffffffffffffffffffffffffffffffffff16600660009054906101000a900473ffffffffffffffffffffffffffffffffffffffff1673ffffffffffffffffffffffffffffffffffffffff163073ffffffffffffffffffffffffffffffffffffffff167f7e89c4b1a4e2b51aae84eb1f90e8a34cb792ece5ac5cb63db4830c891220b28d600160026040516102db929190610af6565b60405180910390a450565b6000600860149054906101000a900460ff16600281111561030a576103096109db565b5b905090565b600660009054906101000a900473ffffffffffffffffffffffffffffffffffffffff1673ffffffffffffffffffffffffffffffffffffffff168173ffffffffffffffffffffffffffffffffffffffff161461039f576040517f08c379a000000000000000000000000000000000000000000000000000000000815260040161039690610b91565b60405180910390fd5b600060028111156103b3576103b26109db565b5b60028111156103c5576103c46109db565b5b600860149054906101000a900460ff1660028111156103e7576103e66109db565b5b14610427576040517f08c379a000000000000000000000000000000000000000000000000000000000815260040161041e90610c23565b60405180910390fd5b6001600281111561043b5761043a6109db565b5b600860146101000a81548160ff0219169083600281111561045f5761045e6109db565b5b0217905550600760009054906101000a900473ffffffffffffffffffffffffffffffffffffffff1673ffffffffffffffffffffffffffffffffffffffff16600660009054906101000a900473ffffffffffffffffffffffffffffffffffffffff1673ffffffffffffffffffffffffffffffffffffffff163073ffffffffffffffffffffffffffffffffffffffff167f7e89c4b1a4e2b51aae84eb1f90e8a34cb792ece5ac5cb63db4830c891220b28d60018060405161051f929190610c43565b60405180910390a450565b6060806060600080600080600260036004600554600660009054906101000a900473ffffffffffffffffffffffffffffffffffffffff16600760009054906101000a900473ffffffffffffffffffffffffffffffffffffffff16600860009054906101000a900473ffffffffffffffffffffffffffffffffffffffff168680546105b390610c9b565b80601f01602080910402602001604051908101604052809291908181526020018280546105df90610c9b565b801561062c5780601f106106015761010080835404028352916020019161062c565b820191906000526020600020905b81548152906001019060200180831161060f57829003601f168201915b5050505050965085805461063f90610c9b565b80601f016020809104026020016040519081016040528092919081815260200182805461066b90610c9b565b80156106b85780601f1061068d576101008083540402835291602001916106b8565b820191906000526020600020905b81548152906001019060200180831161069b57829003601f168201915b505050505095508480546106cb90610c9b565b80601f01602080910402602001604051908101604052809291908181526020018280546106f790610c9b565b80156107445780601f1061071957610100808354040283529160200191610744565b820191906000526020600020905b81548152906001019060200180831161072757829003601f168201915b50505050509450965096509650965096509650965090919293949596565b600080fd5b600073ffffffffffffffffffffffffffffffffffffffff82169050919050565b600061079282610767565b9050919050565b6107a281610787565b81146107ad57600080fd5b50565b6000813590506107bf81610799565b92915050565b6000602082840312156107db576107da610762565b5b60006107e9848285016107b0565b91505092915050565b6000819050919050565b610805816107f2565b82525050565b600060208201905061082060008301846107fc565b92915050565b600081519050919050565b600082825260208201905092915050565b60005b83811015610860578082015181840152602081019050610845565b60008484015250505050565b6000601f19601f8301169050919050565b600061088882610826565b6108928185610831565b93506108a2818560208601610842565b6108ab8161086c565b840191505092915050565b6108bf81610787565b82525050565b600060e08201905081810360008301526108df818a61087d565b905081810360208301526108f3818961087d565b90508181036040830152610907818861087d565b905061091660608301876107fc565b61092360808301866108b6565b61093060a08301856108b6565b61093d60c08301846108b6565b98975050505050505050565b7f4f6e79206d616e7566616374757265722063616e20726563656976207468652060008201527f7061636b61676500000000000000000000000000000000000000000000000000602082015250565b60006109a5602783610831565b91506109b082610949565b604082019050919050565b600060208201905081810360008301526109d481610998565b9050919050565b7f4e487b7100000000000000000000000000000000000000000000000000000000600052602160045260246000fd5b7f5061636b616765206e6f74207368697070656420796574210000000000000000600082015250565b6000610a40601883610831565b9150610a4b82610a0a565b602082019050919050565b60006020820190508181036000830152610a6f81610a33565b9050919050565b6000819050919050565b6000819050919050565b6000610aa5610aa0610a9b84610a76565b610a80565b6107f2565b9050919050565b610ab581610a8a565b82525050565b6000819050919050565b6000610ae0610adb610ad684610abb565b610a80565b6107f2565b9050919050565b610af081610ac5565b82525050565b6000604082019050610b0b6000830185610aac565b610b186020830184610ae7565b9392505050565b7f4f6e6c7920746865207368697070657220697320616c6c6f77656420746f207360008201527f6869702074686973207061636b61676521000000000000000000000000000000602082015250565b6000610b7b603183610831565b9150610b8682610b1f565b604082019050919050565b60006020820190508181036000830152610baa81610b6e565b9050919050565b7f746865207061636b616765206973206e6f206c6f6e676572207769746820746860008201527f65206f776e657221000000000000000000000000000000000000000000000000602082015250565b6000610c0d602883610831565b9150610c1882610bb1565b604082019050919050565b60006020820190508181036000830152610c3c81610c00565b9050919050565b6000604082019050610c586000830185610aac565b610c656020830184610aac565b9392505050565b7f4e487b7100000000000000000000000000000000000000000000000000000000600052602260045260246000fd5b60006002820490506001821680610cb357607f821691505b602082108103610cc657610cc5610c6c565b5b5091905056fea2646970667358221220e7ca3db65bc10a505ba91e609d35e6eb0da13b5347f6ea297aa2b3ffb51b63d464736f6c63430008110033",
  "immutableReferences": {},
  "source": "pragma solidity ^0.8.17;\n\ncontract RawMaterial{\n    address owner;\n    enum packageStatus{atCreator,picked,delivered}\n\n    event ShippmentUpdate(\n        address indexed BatchId,\n        address indexed Shipper,\n        address indexed Manufacturer,\n        uint TransporterTpye,\n        uint Status\n    );\n\n    address productId;\n    string description;\n    string ownerName;\n    string location;\n    uint256 quantity;\n    address shipper;\n    address manufacturer;\n    address supplier;\n    packageStatus status;\n    string packageReceiverDescription;\n\n    constructor(\n        address _supplier,\n        string memory _description,\n        string memory _ownerName,\n        string memory _location,\n        uint256 _quantity,\n        address _shipper,\n        address _manufacturer\n    ) public{\n        owner=_supplier;\n        productId=address(this);\n        description=_description;\n        ownerName=_ownerName;\n        location=_location;\n        quantity=_quantity;\n        shipper=_shipper;\n        manufacturer=_manufacturer;\n        supplier=_supplier;\n        status=packageStatus(0);\n    }\n\n       function getSuppliedRawMatrials () public view returns(\n        string memory,\n        string memory,\n        string memory,\n        uint,\n        address,\n        address,\n        address\n    ) {\n        return(\n            description,\n            ownerName,\n            location,\n            quantity,\n            shipper,\n            manufacturer,\n            supplier\n        );\n    }\n\n    function getRawMatrialsStatus() public view returns(uint) {\n        return uint(status);\n    }\n\n    function pickPackage(address _shipper) public {\n        require(_shipper==shipper,\"Only the shipper is allowed to ship this package!\");\n        require(status==packageStatus(0),\"the package is no longer with the owner!\");\n        status=packageStatus(1);\n        emit ShippmentUpdate(address(this), shipper, manufacturer, 1, 1);\n    }\n\n    function receivePackage(address _manufacturer) public{\n        require(_manufacturer==manufacturer,\"Ony manufacturer can receiv the package\");\n        require(status==packageStatus(1),\"Package not shipped yet!\");\n        status=packageStatus(2);\n        emit ShippmentUpdate(address(this), shipper, manufacturer, 1, 2);\n    }\n}",
  "sourcePath": "C:\\Users\\Farhan\\.vscode\\SupplyChain\\contracts\\RawMaterial.sol",
  "compiler": {
    "name": "solc",
    "version": "0.8.17+commit.8df45f5f.Emscripten.clang"
  },
  "schemaVersion": "3.4.11",
  "updatedAt": "2023-04-05T16:55:18.109Z",
  "devdoc": {
    "kind": "dev",
    "methods": {},
    "version": 1
  },
  "userdoc": {
    "kind": "user",
    "methods": {},
    "version": 1
  }
}