{
  "contractName": "Supplier",
  "abi": [
    {
      "inputs": [
        {
          "internalType": "address",
          "name": "_admin",
          "type": "address"
        }
      ],
      "stateMutability": "nonpayable",
      "type": "constructor"
    },
    {
      "anonymous": false,
      "inputs": [
        {
          "indexed": true,
          "internalType": "address",
          "name": "productId",
          "type": "address"
        },
        {
          "indexed": true,
          "internalType": "address",
          "name": "supplier",
          "type": "address"
        },
        {
          "indexed": false,
          "internalType": "address",
          "name": "shipper",
          "type": "address"
        },
        {
          "indexed": true,
          "internalType": "address",
          "name": "receiver",
          "type": "address"
        }
      ],
      "name": "RawSupplyInit",
      "type": "event"
    },
    {
      "inputs": [
        {
          "internalType": "string",
          "name": "_description",
          "type": "string"
        },
        {
          "internalType": "string",
          "name": "_ownerName",
          "type": "string"
        },
        {
          "internalType": "string",
          "name": "_location",
          "type": "string"
        },
        {
          "internalType": "uint256",
          "name": "_quantity",
          "type": "uint256"
        },
        {
          "internalType": "address",
          "name": "_shipper",
          "type": "address"
        },
        {
          "internalType": "address",
          "name": "_manufacturer",
          "type": "address"
        }
      ],
      "name": "createRawPackage",
      "outputs": [],
      "stateMutability": "nonpayable",
      "type": "function"
    },
    {
      "inputs": [
        {
          "internalType": "address",
          "name": "_supplier",
          "type": "address"
        }
      ],
      "name": "getPackageCountSupplier",
      "outputs": [
        {
          "internalType": "uint256",
          "name": "",
          "type": "uint256"
        }
      ],
      "stateMutability": "view",
      "type": "function",
      "constant": true
    },
    {
      "inputs": [
        {
          "internalType": "uint256",
          "name": "index",
          "type": "uint256"
        },
        {
          "internalType": "address",
          "name": "_supplier",
          "type": "address"
        }
      ],
      "name": "getPackageIdByIndexSupplier",
      "outputs": [
        {
          "internalType": "address",
          "name": "",
          "type": "address"
        }
      ],
      "stateMutability": "view",
      "type": "function",
      "constant": true
    }
  ],
  "bytecode": "0x608060405234801561001057600080fd5b50604051620024df380380620024df833981810160405281019061003491906100dd565b806000806101000a81548173ffffffffffffffffffffffffffffffffffffffff021916908373ffffffffffffffffffffffffffffffffffffffff1602179055505061010a565b600080fd5b600073ffffffffffffffffffffffffffffffffffffffff82169050919050565b60006100aa8261007f565b9050919050565b6100ba8161009f565b81146100c557600080fd5b50565b6000815190506100d7816100b1565b92915050565b6000602082840312156100f3576100f261007a565b5b6000610101848285016100c8565b91505092915050565b6123c5806200011a6000396000f3fe60806040523480156200001157600080fd5b5060043610620000465760003560e01c80639605a6c6146200004b57806396c69a4d1462000081578063b32aedc014620000b7575b600080fd5b62000069600480360381019062000063919062000747565b620000d7565b6040516200007891906200079f565b60405180910390f35b6200009f6004803603810190620000999190620007bc565b62000283565b604051620000ae9190620007ff565b60405180910390f35b620000d56004803603810190620000cf91906200097e565b620003f2565b005b600060016006811115620000f057620000ef62000a77565b5b60008054906101000a900473ffffffffffffffffffffffffffffffffffffffff1673ffffffffffffffffffffffffffffffffffffffff166344276733846040518263ffffffff1660e01b81526004016200014b91906200079f565b602060405180830381865afa15801562000169573d6000803e3d6000fd5b505050506040513d601f19601f820116820180604052508101906200018f919062000abd565b6006811115620001a457620001a362000a77565b5b6006811115620001b957620001b862000a77565b5b14620001fc576040517f08c379a0000000000000000000000000000000000000000000000000000000008152600401620001f39062000b76565b60405180910390fd5b600160008373ffffffffffffffffffffffffffffffffffffffff1673ffffffffffffffffffffffffffffffffffffffff168152602001908152602001600020838154811062000250576200024f62000b98565b5b9060005260206000200160009054906101000a900473ffffffffffffffffffffffffffffffffffffffff16905092915050565b6000600160068111156200029c576200029b62000a77565b5b60008054906101000a900473ffffffffffffffffffffffffffffffffffffffff1673ffffffffffffffffffffffffffffffffffffffff166344276733846040518263ffffffff1660e01b8152600401620002f791906200079f565b602060405180830381865afa15801562000315573d6000803e3d6000fd5b505050506040513d601f19601f820116820180604052508101906200033b919062000abd565b600681111562000350576200034f62000a77565b5b600681111562000365576200036462000a77565b5b14620003a8576040517f08c379a00000000000000000000000000000000000000000000000000000000081526004016200039f9062000c17565b60405180910390fd5b600160008373ffffffffffffffffffffffffffffffffffffffff1673ffffffffffffffffffffffffffffffffffffffff168152602001908152602001600020805490509050919050565b6001600681111562000409576200040862000a77565b5b60008054906101000a900473ffffffffffffffffffffffffffffffffffffffff1673ffffffffffffffffffffffffffffffffffffffff166344276733336040518263ffffffff1660e01b81526004016200046491906200079f565b602060405180830381865afa15801562000482573d6000803e3d6000fd5b505050506040513d601f19601f82011682018060405250810190620004a8919062000abd565b6006811115620004bd57620004bc62000a77565b5b6006811115620004d257620004d162000a77565b5b1462000515576040517f08c379a00000000000000000000000000000000000000000000000000000000081526004016200050c9062000caf565b60405180910390fd5b6000338787878787876040516200052c9062000685565b6200053e979695949392919062000d49565b604051809103906000f0801580156200055b573d6000803e3d6000fd5b509050600160003373ffffffffffffffffffffffffffffffffffffffff1673ffffffffffffffffffffffffffffffffffffffff168152602001908152602001600020819080600181540180825580915050600190039060005260206000200160009091909190916101000a81548173ffffffffffffffffffffffffffffffffffffffff021916908373ffffffffffffffffffffffffffffffffffffffff1602179055508173ffffffffffffffffffffffffffffffffffffffff163373ffffffffffffffffffffffffffffffffffffffff168273ffffffffffffffffffffffffffffffffffffffff167f9dbe7d9fdd28b9b1c2ffe79a40f7beff124537ed0d7a47555d009e0271fc6133866040516200067491906200079f565b60405180910390a450505050505050565b6115b48062000ddc83390190565b6000604051905090565b600080fd5b600080fd5b6000819050919050565b620006bc81620006a7565b8114620006c857600080fd5b50565b600081359050620006dc81620006b1565b92915050565b600073ffffffffffffffffffffffffffffffffffffffff82169050919050565b60006200070f82620006e2565b9050919050565b620007218162000702565b81146200072d57600080fd5b50565b600081359050620007418162000716565b92915050565b600080604083850312156200076157620007606200069d565b5b60006200077185828601620006cb565b9250506020620007848582860162000730565b9150509250929050565b620007998162000702565b82525050565b6000602082019050620007b660008301846200078e565b92915050565b600060208284031215620007d557620007d46200069d565b5b6000620007e58482850162000730565b91505092915050565b620007f981620006a7565b82525050565b6000602082019050620008166000830184620007ee565b92915050565b600080fd5b600080fd5b6000601f19601f8301169050919050565b7f4e487b7100000000000000000000000000000000000000000000000000000000600052604160045260246000fd5b620008718262000826565b810181811067ffffffffffffffff8211171562000893576200089262000837565b5b80604052505050565b6000620008a862000693565b9050620008b6828262000866565b919050565b600067ffffffffffffffff821115620008d957620008d862000837565b5b620008e48262000826565b9050602081019050919050565b82818337600083830152505050565b6000620009176200091184620008bb565b6200089c565b90508281526020810184848401111562000936576200093562000821565b5b62000943848285620008f1565b509392505050565b600082601f8301126200096357620009626200081c565b5b81356200097584826020860162000900565b91505092915050565b60008060008060008060c087890312156200099e576200099d6200069d565b5b600087013567ffffffffffffffff811115620009bf57620009be620006a2565b5b620009cd89828a016200094b565b965050602087013567ffffffffffffffff811115620009f157620009f0620006a2565b5b620009ff89828a016200094b565b955050604087013567ffffffffffffffff81111562000a235762000a22620006a2565b5b62000a3189828a016200094b565b945050606062000a4489828a01620006cb565b935050608062000a5789828a0162000730565b92505060a062000a6a89828a0162000730565b9150509295509295509295565b7f4e487b7100000000000000000000000000000000000000000000000000000000600052602160045260246000fd5b60008151905062000ab781620006b1565b92915050565b60006020828403121562000ad65762000ad56200069d565b5b600062000ae68482850162000aa6565b91505092915050565b600082825260208201905092915050565b7f4f6e6c7920737570706c6965722063616e2063616c6c20746869732066756e6360008201527f74696f6e21000000000000000000000000000000000000000000000000000000602082015250565b600062000b5e60258362000aef565b915062000b6b8262000b00565b604082019050919050565b6000602082019050818103600083015262000b918162000b4f565b9050919050565b7f4e487b7100000000000000000000000000000000000000000000000000000000600052603260045260246000fd5b7f4f6e6c7920737570706c6965722063616e206765742061207061636b61676521600082015250565b600062000bff60208362000aef565b915062000c0c8262000bc7565b602082019050919050565b6000602082019050818103600083015262000c328162000bf0565b9050919050565b7f4f6e6c7920737570706c6965722063616e206372656174652061207061636b6160008201527f6765210000000000000000000000000000000000000000000000000000000000602082015250565b600062000c9760238362000aef565b915062000ca48262000c39565b604082019050919050565b6000602082019050818103600083015262000cca8162000c88565b9050919050565b600081519050919050565b60005b8381101562000cfc57808201518184015260208101905062000cdf565b60008484015250505050565b600062000d158262000cd1565b62000d21818562000aef565b935062000d3381856020860162000cdc565b62000d3e8162000826565b840191505092915050565b600060e08201905062000d60600083018a6200078e565b818103602083015262000d74818962000d08565b9050818103604083015262000d8a818862000d08565b9050818103606083015262000da0818762000d08565b905062000db16080830186620007ee565b62000dc060a08301856200078e565b62000dcf60c08301846200078e565b9897505050505050505056fe60806040523480156200001157600080fd5b50604051620015b4380380620015b483398181016040528101906200003791906200043b565b866000806101000a81548173ffffffffffffffffffffffffffffffffffffffff021916908373ffffffffffffffffffffffffffffffffffffffff16021790555030600160006101000a81548173ffffffffffffffffffffffffffffffffffffffff021916908373ffffffffffffffffffffffffffffffffffffffff1602179055508560029081620000c991906200078c565b508460039081620000db91906200078c565b508360049081620000ed91906200078c565b508260058190555081600660006101000a81548173ffffffffffffffffffffffffffffffffffffffff021916908373ffffffffffffffffffffffffffffffffffffffff16021790555080600760006101000a81548173ffffffffffffffffffffffffffffffffffffffff021916908373ffffffffffffffffffffffffffffffffffffffff16021790555086600860006101000a81548173ffffffffffffffffffffffffffffffffffffffff021916908373ffffffffffffffffffffffffffffffffffffffff16021790555060006002811115620001cf57620001ce62000873565b5b600860146101000a81548160ff02191690836002811115620001f657620001f562000873565b5b021790555050505050505050620008a2565b6000604051905090565b600080fd5b600080fd5b600073ffffffffffffffffffffffffffffffffffffffff82169050919050565b600062000249826200021c565b9050919050565b6200025b816200023c565b81146200026757600080fd5b50565b6000815190506200027b8162000250565b92915050565b600080fd5b600080fd5b6000601f19601f8301169050919050565b7f4e487b7100000000000000000000000000000000000000000000000000000000600052604160045260246000fd5b620002d6826200028b565b810181811067ffffffffffffffff82111715620002f857620002f76200029c565b5b80604052505050565b60006200030d62000208565b90506200031b8282620002cb565b919050565b600067ffffffffffffffff8211156200033e576200033d6200029c565b5b62000349826200028b565b9050602081019050919050565b60005b838110156200037657808201518184015260208101905062000359565b60008484015250505050565b600062000399620003938462000320565b62000301565b905082815260208101848484011115620003b857620003b762000286565b5b620003c584828562000356565b509392505050565b600082601f830112620003e557620003e462000281565b5b8151620003f784826020860162000382565b91505092915050565b6000819050919050565b620004158162000400565b81146200042157600080fd5b50565b60008151905062000435816200040a565b92915050565b600080600080600080600060e0888a0312156200045d576200045c62000212565b5b60006200046d8a828b016200026a565b975050602088015167ffffffffffffffff81111562000491576200049062000217565b5b6200049f8a828b01620003cd565b965050604088015167ffffffffffffffff811115620004c357620004c262000217565b5b620004d18a828b01620003cd565b955050606088015167ffffffffffffffff811115620004f557620004f462000217565b5b620005038a828b01620003cd565b9450506080620005168a828b0162000424565b93505060a0620005298a828b016200026a565b92505060c06200053c8a828b016200026a565b91505092959891949750929550565b600081519050919050565b7f4e487b7100000000000000000000000000000000000000000000000000000000600052602260045260246000fd5b600060028204905060018216806200059e57607f821691505b602082108103620005b457620005b362000556565b5b50919050565b60008190508160005260206000209050919050565b60006020601f8301049050919050565b600082821b905092915050565b6000600883026200061e7fffffffffffffffffffffffffffffffffffffffffffffffffffffffffffffffff82620005df565b6200062a8683620005df565b95508019841693508086168417925050509392505050565b6000819050919050565b60006200066d62000667620006618462000400565b62000642565b62000400565b9050919050565b6000819050919050565b62000689836200064c565b620006a1620006988262000674565b848454620005ec565b825550505050565b600090565b620006b8620006a9565b620006c58184846200067e565b505050565b5b81811015620006ed57620006e1600082620006ae565b600181019050620006cb565b5050565b601f8211156200073c576200070681620005ba565b6200071184620005cf565b8101602085101562000721578190505b620007396200073085620005cf565b830182620006ca565b50505b505050565b600082821c905092915050565b6000620007616000198460080262000741565b1980831691505092915050565b60006200077c83836200074e565b9150826002028217905092915050565b62000797826200054b565b67ffffffffffffffff811115620007b357620007b26200029c565b5b620007bf825462000585565b620007cc828285620006f1565b600060209050601f831160018114620008045760008415620007ef578287015190505b620007fb85826200076e565b8655506200086b565b601f1984166200081486620005ba565b60005b828110156200083e5784890151825560018201915060208501945060208101905062000817565b868310156200085e57848901516200085a601f8916826200074e565b8355505b6001600288020188555050505b505050505050565b7f4e487b7100000000000000000000000000000000000000000000000000000000600052602160045260246000fd5b610d0280620008b26000396000f3fe608060405234801561001057600080fd5b506004361061004c5760003560e01c80631f29567a146100515780633b205a7d1461006d578063638e9a3d1461008b578063d02eee23146100a7575b600080fd5b61006b600480360381019061006691906107c5565b6100cb565b005b6100756102e6565b604051610082919061080b565b60405180910390f35b6100a560048036038101906100a091906107c5565b61030f565b005b6100af61052a565b6040516100c297969594939291906108c5565b60405180910390f35b600760009054906101000a900473ffffffffffffffffffffffffffffffffffffffff1673ffffffffffffffffffffffffffffffffffffffff168173ffffffffffffffffffffffffffffffffffffffff161461015b576040517f08c379a0000000000000000000000000000000000000000000000000000000008152600401610152906109bb565b60405180910390fd5b6001600281111561016f5761016e6109db565b5b6002811115610181576101806109db565b5b600860149054906101000a900460ff1660028111156101a3576101a26109db565b5b146101e3576040517f08c379a00000000000000000000000000000000000000000000000000000000081526004016101da90610a56565b60405180910390fd5b6002808111156101f6576101f56109db565b5b600860146101000a81548160ff0219169083600281111561021a576102196109db565b5b0217905550600760009054906101000a900473ffffffffffffffffffffffffffffffffffffffff1673ffffffffffffffffffffffffffffffffffffffff16600660009054906101000a900473ffffffffffffffffffffffffffffffffffffffff1673ffffffffffffffffffffffffffffffffffffffff163073ffffffffffffffffffffffffffffffffffffffff167f7e89c4b1a4e2b51aae84eb1f90e8a34cb792ece5ac5cb63db4830c891220b28d600160026040516102db929190610af6565b60405180910390a450565b6000600860149054906101000a900460ff16600281111561030a576103096109db565b5b905090565b600660009054906101000a900473ffffffffffffffffffffffffffffffffffffffff1673ffffffffffffffffffffffffffffffffffffffff168173ffffffffffffffffffffffffffffffffffffffff161461039f576040517f08c379a000000000000000000000000000000000000000000000000000000000815260040161039690610b91565b60405180910390fd5b600060028111156103b3576103b26109db565b5b60028111156103c5576103c46109db565b5b600860149054906101000a900460ff1660028111156103e7576103e66109db565b5b14610427576040517f08c379a000000000000000000000000000000000000000000000000000000000815260040161041e90610c23565b60405180910390fd5b6001600281111561043b5761043a6109db565b5b600860146101000a81548160ff0219169083600281111561045f5761045e6109db565b5b0217905550600760009054906101000a900473ffffffffffffffffffffffffffffffffffffffff1673ffffffffffffffffffffffffffffffffffffffff16600660009054906101000a900473ffffffffffffffffffffffffffffffffffffffff1673ffffffffffffffffffffffffffffffffffffffff163073ffffffffffffffffffffffffffffffffffffffff167f7e89c4b1a4e2b51aae84eb1f90e8a34cb792ece5ac5cb63db4830c891220b28d60018060405161051f929190610c43565b60405180910390a450565b6060806060600080600080600260036004600554600660009054906101000a900473ffffffffffffffffffffffffffffffffffffffff16600760009054906101000a900473ffffffffffffffffffffffffffffffffffffffff16600860009054906101000a900473ffffffffffffffffffffffffffffffffffffffff168680546105b390610c9b565b80601f01602080910402602001604051908101604052809291908181526020018280546105df90610c9b565b801561062c5780601f106106015761010080835404028352916020019161062c565b820191906000526020600020905b81548152906001019060200180831161060f57829003601f168201915b5050505050965085805461063f90610c9b565b80601f016020809104026020016040519081016040528092919081815260200182805461066b90610c9b565b80156106b85780601f1061068d576101008083540402835291602001916106b8565b820191906000526020600020905b81548152906001019060200180831161069b57829003601f168201915b505050505095508480546106cb90610c9b565b80601f01602080910402602001604051908101604052809291908181526020018280546106f790610c9b565b80156107445780601f1061071957610100808354040283529160200191610744565b820191906000526020600020905b81548152906001019060200180831161072757829003601f168201915b50505050509450965096509650965096509650965090919293949596565b600080fd5b600073ffffffffffffffffffffffffffffffffffffffff82169050919050565b600061079282610767565b9050919050565b6107a281610787565b81146107ad57600080fd5b50565b6000813590506107bf81610799565b92915050565b6000602082840312156107db576107da610762565b5b60006107e9848285016107b0565b91505092915050565b6000819050919050565b610805816107f2565b82525050565b600060208201905061082060008301846107fc565b92915050565b600081519050919050565b600082825260208201905092915050565b60005b83811015610860578082015181840152602081019050610845565b60008484015250505050565b6000601f19601f8301169050919050565b600061088882610826565b6108928185610831565b93506108a2818560208601610842565b6108ab8161086c565b840191505092915050565b6108bf81610787565b82525050565b600060e08201905081810360008301526108df818a61087d565b905081810360208301526108f3818961087d565b90508181036040830152610907818861087d565b905061091660608301876107fc565b61092360808301866108b6565b61093060a08301856108b6565b61093d60c08301846108b6565b98975050505050505050565b7f4f6e79206d616e7566616374757265722063616e20726563656976207468652060008201527f7061636b61676500000000000000000000000000000000000000000000000000602082015250565b60006109a5602783610831565b91506109b082610949565b604082019050919050565b600060208201905081810360008301526109d481610998565b9050919050565b7f4e487b7100000000000000000000000000000000000000000000000000000000600052602160045260246000fd5b7f5061636b616765206e6f74207368697070656420796574210000000000000000600082015250565b6000610a40601883610831565b9150610a4b82610a0a565b602082019050919050565b60006020820190508181036000830152610a6f81610a33565b9050919050565b6000819050919050565b6000819050919050565b6000610aa5610aa0610a9b84610a76565b610a80565b6107f2565b9050919050565b610ab581610a8a565b82525050565b6000819050919050565b6000610ae0610adb610ad684610abb565b610a80565b6107f2565b9050919050565b610af081610ac5565b82525050565b6000604082019050610b0b6000830185610aac565b610b186020830184610ae7565b9392505050565b7f4f6e6c7920746865207368697070657220697320616c6c6f77656420746f207360008201527f6869702074686973207061636b61676521000000000000000000000000000000602082015250565b6000610b7b603183610831565b9150610b8682610b1f565b604082019050919050565b60006020820190508181036000830152610baa81610b6e565b9050919050565b7f746865207061636b616765206973206e6f206c6f6e676572207769746820746860008201527f65206f776e657221000000000000000000000000000000000000000000000000602082015250565b6000610c0d602883610831565b9150610c1882610bb1565b604082019050919050565b60006020820190508181036000830152610c3c81610c00565b9050919050565b6000604082019050610c586000830185610aac565b610c656020830184610aac565b9392505050565b7f4e487b7100000000000000000000000000000000000000000000000000000000600052602260045260246000fd5b60006002820490506001821680610cb357607f821691505b602082108103610cc657610cc5610c6c565b5b5091905056fea2646970667358221220e7ca3db65bc10a505ba91e609d35e6eb0da13b5347f6ea297aa2b3ffb51b63d464736f6c63430008110033a26469706673582212206c4a3a4cbec78667b810a5df64a4a5d6095fd99ff9681a0060496a139db1372164736f6c63430008110033",
  "immutableReferences": {},
  "source": "pragma solidity ^0.8.17;\n\nimport \"./Admin.sol\";\nimport \"./RawMaterial.sol\";\n\ncontract Supplier{\n\n    address admin;\n\n    constructor(address _admin) public {\n        admin=_admin;\n    }\n      enum roles{\n        norole,\n        supplier,\n        transporter,\n        manufacturer,\n        distributor,\n        retailer,\n        revoke\n    }\n\n    mapping(address=>address[]) supplierRawProductInfo;\n\n    event RawSupplyInit(\n        address indexed productId,\n        address indexed supplier,\n        address shipper,\n        address indexed receiver\n    );\n\n    function createRawPackage(\n        string memory _description,\n        string memory _ownerName,\n        string memory _location,\n        uint256 _quantity,\n        address _shipper,\n        address _manufacturer\n    ) public {\n\n        require(roles(Admin(admin).getRole(msg.sender))==roles.supplier,\"Only supplier can create a package!\");\n\n        RawMaterial rawData=new RawMaterial(\n            msg.sender,\n         _description,\n         _ownerName,\n         _location,\n         _quantity,\n         _shipper,\n         _manufacturer\n        );\n\n        supplierRawProductInfo[msg.sender].push(address(rawData));\n        emit RawSupplyInit(address(rawData), msg.sender, _shipper, _manufacturer);\n    }\n\n    function getPackageCountSupplier(address _supplier) public view returns(uint){\n        require(roles(Admin(admin).getRole(_supplier))==roles.supplier,\"Only supplier can get a package!\");\n        return supplierRawProductInfo[_supplier].length;\n    }\n\n    function getPackageIdByIndexSupplier(uint index,address _supplier) public view returns(address){\n        require(roles(Admin(admin).getRole(_supplier))==roles.supplier,\"Only supplier can call this function!\");\n        return supplierRawProductInfo[_supplier][index];\n    }\n}",
  "sourcePath": "C:\\Users\\Farhan\\.vscode\\SupplyChain\\contracts\\Supplier.sol",
  "compiler": {
    "name": "solc",
    "version": "0.8.17+commit.8df45f5f.Emscripten.clang"
  },
  "schemaVersion": "3.4.11",
  "updatedAt": "2023-04-05T16:55:31.460Z",
  "networkType": "ethereum",
  "devdoc": {
    "kind": "dev",
    "methods": {},
    "version": 1
  },
  "userdoc": {
    "kind": "user",
    "methods": {},
    "version": 1
  }
}