{
  "contractName": "Transporter",
  "abi": [
    {
      "inputs": [
        {
          "internalType": "address",
          "name": "_admin",
          "type": "address"
        }
      ],
      "stateMutability": "nonpayable",
      "type": "constructor"
    },
    {
      "inputs": [
        {
          "internalType": "address",
          "name": "batchId",
          "type": "address"
        },
        {
          "internalType": "uint256",
          "name": "transporterType",
          "type": "uint256"
        },
        {
          "internalType": "address",
          "name": "distributorId",
          "type": "address"
        }
      ],
      "name": "loadConsignment",
      "outputs": [],
      "stateMutability": "nonpayable",
      "type": "function"
    }
  ],
  "bytecode": "0x608060405234801561001057600080fd5b506040516106ef3803806106ef833981810160405281019061003291906100db565b806000806101000a81548173ffffffffffffffffffffffffffffffffffffffff021916908373ffffffffffffffffffffffffffffffffffffffff16021790555050610108565b600080fd5b600073ffffffffffffffffffffffffffffffffffffffff82169050919050565b60006100a88261007d565b9050919050565b6100b88161009d565b81146100c357600080fd5b50565b6000815190506100d5816100af565b92915050565b6000602082840312156100f1576100f0610078565b5b60006100ff848285016100c6565b91505092915050565b6105d8806101176000396000f3fe608060405234801561001057600080fd5b506004361061002b5760003560e01c80634fa831de14610030575b600080fd5b61004a600480360381019061004591906103a5565b61004c565b005b600260068111156100605761005f6103f8565b5b60008054906101000a900473ffffffffffffffffffffffffffffffffffffffff1673ffffffffffffffffffffffffffffffffffffffff166344276733336040518263ffffffff1660e01b81526004016100b99190610436565b602060405180830381865afa1580156100d6573d6000803e3d6000fd5b505050506040513d601f19601f820116820180604052508101906100fa9190610466565b600681111561010c5761010b6103f8565b5b600681111561011e5761011d6103f8565b5b1461015e576040517f08c379a000000000000000000000000000000000000000000000000000000000815260040161015590610516565b60405180910390fd5b600082116101a1576040517f08c379a000000000000000000000000000000000000000000000000000000000815260040161019890610582565b60405180910390fd5b60018203610219578273ffffffffffffffffffffffffffffffffffffffff1663638e9a3d336040518263ffffffff1660e01b81526004016101e29190610436565b600060405180830381600087803b1580156101fc57600080fd5b505af1158015610210573d6000803e3d6000fd5b50505050610307565b60028203610291578273ffffffffffffffffffffffffffffffffffffffff1663f74fdde1336040518263ffffffff1660e01b815260040161025a9190610436565b600060405180830381600087803b15801561027457600080fd5b505af1158015610288573d6000803e3d6000fd5b50505050610306565b60038203610305578273ffffffffffffffffffffffffffffffffffffffff1663ef488803336040518263ffffffff1660e01b81526004016102d29190610436565b600060405180830381600087803b1580156102ec57600080fd5b505af1158015610300573d6000803e3d6000fd5b505050505b5b5b505050565b600080fd5b600073ffffffffffffffffffffffffffffffffffffffff82169050919050565b600061033c82610311565b9050919050565b61034c81610331565b811461035757600080fd5b50565b60008135905061036981610343565b92915050565b6000819050919050565b6103828161036f565b811461038d57600080fd5b50565b60008135905061039f81610379565b92915050565b6000806000606084860312156103be576103bd61030c565b5b60006103cc8682870161035a565b93505060206103dd86828701610390565b92505060406103ee8682870161035a565b9150509250925092565b7f4e487b7100000000000000000000000000000000000000000000000000000000600052602160045260246000fd5b61043081610331565b82525050565b600060208201905061044b6000830184610427565b92915050565b60008151905061046081610379565b92915050565b60006020828403121561047c5761047b61030c565b5b600061048a84828501610451565b91505092915050565b600082825260208201905092915050565b7f4f6e6c79207472616e73706f727465722063616e2063616c6c2074686973206660008201527f756e6374696f6e2e000000000000000000000000000000000000000000000000602082015250565b6000610500602883610493565b915061050b826104a4565b604082019050919050565b6000602082019050818103600083015261052f816104f3565b9050919050565b7f5472616e73706f72746572207479706520756e646566696e6564000000000000600082015250565b600061056c601a83610493565b915061057782610536565b602082019050919050565b6000602082019050818103600083015261059b8161055f565b905091905056fea2646970667358221220171ca51022ccd5750bbc8f2eb73ff577cd5ebab46f9ed0a9a6f696e7e6b86e4e64736f6c63430008110033",
  "immutableReferences": {},
  "source": "pragma solidity ^0.8.17;\n\nimport \"./Admin.sol\";\nimport \"./RawMaterial.sol\";\nimport \"./Medicine.sol\";\nimport \"./Distributor.sol\";\n\ncontract Transporter{\n        enum roles{\n        norole,\n        supplier,\n        transporter,\n        manufacturer,\n        distributor,\n        retailer,\n        revoke\n    }\n\n    address admin;\n\n    constructor(address _admin) public {\n         admin=_admin;\n    }\n\n    function loadConsignment(\n        address batchId,\n        uint transporterType,\n        address distributorId\n    ) public {\n        require(roles(Admin(admin).getRole(msg.sender))==roles.transporter,\"Only transporter can call this function.\");\n        require(transporterType>0,\"Transporter type undefined\");\n        if(transporterType==1){\n            RawMaterial(batchId).pickPackage(msg.sender);\n        }\n        else if(transporterType==2){\n            Medicine(batchId).pickPackageDistributor(msg.sender);\n        }\n        else if(transporterType==3){\n            // Distributor(distributorId).pickPackageForRetailer(batchId,msg.sender);\n            Medicine(batchId).pickPackageRetailer(msg.sender);\n        }\n    }\n}",
  "sourcePath": "C:\\Users\\Farhan\\.vscode\\SupplyChain\\contracts\\Transporter.sol",
  "compiler": {
    "name": "solc",
    "version": "0.8.17+commit.8df45f5f.Emscripten.clang"
  },
  "schemaVersion": "3.4.11",
  "updatedAt": "2023-04-05T16:55:31.469Z",
  "networkType": "ethereum",
  "devdoc": {
    "kind": "dev",
    "methods": {},
    "version": 1
  },
  "userdoc": {
    "kind": "user",
    "methods": {},
    "version": 1
  }
}